{
  "_format": "hh-sol-artifact-1",
  "contractName": "Voting",
  "sourceName": "contracts/Voting.sol",
  "abi": [
    {
      "inputs": [],
      "stateMutability": "nonpayable",
      "type": "constructor"
    },
    {
      "anonymous": false,
      "inputs": [
        {
          "indexed": true,
          "internalType": "uint256",
          "name": "electionId",
          "type": "uint256"
        },
        {
          "indexed": false,
          "internalType": "uint256",
          "name": "candidateId",
          "type": "uint256"
        },
        {
          "indexed": false,
          "internalType": "string",
          "name": "name",
          "type": "string"
        },
        {
          "indexed": false,
          "internalType": "string",
          "name": "party",
          "type": "string"
        }
      ],
      "name": "CandidateAdded",
      "type": "event"
    },
    {
      "anonymous": false,
      "inputs": [
        {
          "indexed": true,
          "internalType": "uint256",
          "name": "electionId",
          "type": "uint256"
        },
        {
          "indexed": false,
          "internalType": "string",
          "name": "name",
          "type": "string"
        },
        {
          "indexed": false,
          "internalType": "uint256",
          "name": "endTime",
          "type": "uint256"
        }
      ],
      "name": "ElectionCreated",
      "type": "event"
    },
    {
      "anonymous": false,
      "inputs": [
        {
          "indexed": true,
          "internalType": "uint256",
          "name": "electionId",
          "type": "uint256"
        }
      ],
      "name": "ElectionEnded",
      "type": "event"
    },
    {
      "anonymous": false,
      "inputs": [
        {
          "indexed": false,
          "internalType": "address",
          "name": "voter",
          "type": "address"
        },
        {
          "indexed": false,
          "internalType": "string",
          "name": "feedback",
          "type": "string"
        },
        {
          "indexed": false,
          "internalType": "uint256",
          "name": "pollId",
          "type": "uint256"
        }
      ],
      "name": "FeedbackSubmitted",
      "type": "event"
    },
    {
      "anonymous": false,
      "inputs": [
        {
          "indexed": false,
          "internalType": "address",
          "name": "account",
          "type": "address"
        }
      ],
      "name": "Paused",
      "type": "event"
    },
    {
      "anonymous": false,
      "inputs": [
        {
          "indexed": false,
          "internalType": "address",
          "name": "account",
          "type": "address"
        }
      ],
      "name": "Unpaused",
      "type": "event"
    },
    {
      "anonymous": false,
      "inputs": [
        {
          "indexed": true,
          "internalType": "uint256",
          "name": "electionId",
          "type": "uint256"
        },
        {
          "indexed": true,
          "internalType": "address",
          "name": "voter",
          "type": "address"
        },
        {
          "indexed": false,
          "internalType": "uint256",
          "name": "candidateId",
          "type": "uint256"
        }
      ],
      "name": "VoteCast",
      "type": "event"
    },
    {
      "anonymous": false,
      "inputs": [
        {
          "indexed": true,
          "internalType": "address",
          "name": "voter",
          "type": "address"
        }
      ],
      "name": "VoterRegistered",
      "type": "event"
    },
    {
      "anonymous": false,
      "inputs": [
        {
          "indexed": false,
          "internalType": "uint256",
          "name": "startTime",
          "type": "uint256"
        },
        {
          "indexed": false,
          "internalType": "uint256",
          "name": "endTime",
          "type": "uint256"
        }
      ],
      "name": "VotingStarted",
      "type": "event"
    },
    {
      "inputs": [
        {
          "internalType": "address",
          "name": "_admin",
          "type": "address"
        }
      ],
      "name": "addAdmin",
      "outputs": [],
      "stateMutability": "nonpayable",
      "type": "function"
    },
    {
      "inputs": [
        {
          "internalType": "uint256",
          "name": "_electionId",
          "type": "uint256"
        },
        {
          "internalType": "string",
          "name": "_name",
          "type": "string"
        },
        {
          "internalType": "string",
          "name": "_party",
          "type": "string"
        },
        {
          "internalType": "uint256",
          "name": "_age",
          "type": "uint256"
        },
        {
          "internalType": "string",
          "name": "_gender",
          "type": "string"
        }
      ],
      "name": "addCandidate",
      "outputs": [],
      "stateMutability": "nonpayable",
      "type": "function"
    },
    {
      "inputs": [
        {
          "internalType": "address",
          "name": "",
          "type": "address"
        }
      ],
      "name": "admins",
      "outputs": [
        {
          "internalType": "bool",
          "name": "",
          "type": "bool"
        }
      ],
      "stateMutability": "view",
      "type": "function"
    },
    {
      "inputs": [
        {
          "internalType": "uint256",
          "name": "_electionId",
          "type": "uint256"
        },
        {
          "internalType": "uint256",
          "name": "_candidateId",
          "type": "uint256"
        }
      ],
      "name": "castVote",
      "outputs": [],
      "stateMutability": "nonpayable",
      "type": "function"
    },
    {
      "inputs": [
        {
          "internalType": "string",
          "name": "_name",
          "type": "string"
        },
        {
          "internalType": "string",
          "name": "_description",
          "type": "string"
        },
        {
          "internalType": "uint256",
          "name": "_endTime",
          "type": "uint256"
        }
      ],
      "name": "createElection",
      "outputs": [],
      "stateMutability": "nonpayable",
      "type": "function"
    },
    {
      "inputs": [],
      "name": "electionCommission",
      "outputs": [
        {
          "internalType": "address",
          "name": "",
          "type": "address"
        }
      ],
      "stateMutability": "view",
      "type": "function"
    },
    {
      "inputs": [],
      "name": "electionCount",
      "outputs": [
        {
          "internalType": "uint256",
          "name": "",
          "type": "uint256"
        }
      ],
      "stateMutability": "view",
      "type": "function"
    },
    {
      "inputs": [
        {
          "internalType": "uint256",
          "name": "",
          "type": "uint256"
        }
      ],
      "name": "elections",
      "outputs": [
        {
          "internalType": "uint256",
          "name": "id",
          "type": "uint256"
        },
        {
          "internalType": "string",
          "name": "name",
          "type": "string"
        },
        {
          "internalType": "string",
          "name": "description",
          "type": "string"
        },
        {
          "internalType": "uint256",
          "name": "startTime",
          "type": "uint256"
        },
        {
          "internalType": "uint256",
          "name": "endTime",
          "type": "uint256"
        },
        {
          "internalType": "bool",
          "name": "isActive",
          "type": "bool"
        },
        {
          "internalType": "uint256",
          "name": "totalVotes",
          "type": "uint256"
        },
        {
          "internalType": "uint256",
          "name": "winningCandidateId",
          "type": "uint256"
        },
        {
          "internalType": "uint256",
          "name": "maxVotes",
          "type": "uint256"
        }
      ],
      "stateMutability": "view",
      "type": "function"
    },
    {
      "inputs": [
        {
          "internalType": "uint256",
          "name": "_electionId",
          "type": "uint256"
        }
      ],
      "name": "emergencyStop",
      "outputs": [],
      "stateMutability": "nonpayable",
      "type": "function"
    },
    {
      "inputs": [
        {
          "internalType": "uint256",
          "name": "_electionId",
          "type": "uint256"
        }
      ],
      "name": "endElection",
      "outputs": [],
      "stateMutability": "nonpayable",
      "type": "function"
    },
    {
      "inputs": [
        {
          "internalType": "uint256",
          "name": "_electionId",
          "type": "uint256"
        }
      ],
      "name": "getElection",
      "outputs": [
        {
          "internalType": "uint256",
          "name": "id",
          "type": "uint256"
        },
        {
          "internalType": "string",
          "name": "name",
          "type": "string"
        },
        {
          "internalType": "string",
          "name": "description",
          "type": "string"
        },
        {
          "internalType": "uint256",
          "name": "startTime",
          "type": "uint256"
        },
        {
          "internalType": "uint256",
          "name": "endTime",
          "type": "uint256"
        },
        {
          "internalType": "bool",
          "name": "isActive",
          "type": "bool"
        },
        {
          "internalType": "uint256",
          "name": "totalVotes",
          "type": "uint256"
        }
      ],
      "stateMutability": "view",
      "type": "function"
    },
    {
      "inputs": [
        {
          "internalType": "uint256",
          "name": "_electionId",
          "type": "uint256"
        }
      ],
      "name": "getElectionCandidates",
      "outputs": [
        {
          "components": [
            {
              "internalType": "uint256",
              "name": "id",
              "type": "uint256"
            },
            {
              "internalType": "string",
              "name": "name",
              "type": "string"
            },
            {
              "internalType": "string",
              "name": "party",
              "type": "string"
            },
            {
              "internalType": "uint256",
              "name": "age",
              "type": "uint256"
            },
            {
              "internalType": "string",
              "name": "gender",
              "type": "string"
            },
            {
              "internalType": "address",
              "name": "candidateAddress",
              "type": "address"
            },
            {
              "internalType": "uint256",
              "name": "voteCount",
              "type": "uint256"
            }
          ],
          "internalType": "struct Voting.Candidate[]",
          "name": "",
          "type": "tuple[]"
        }
      ],
      "stateMutability": "view",
      "type": "function"
    },
    {
      "inputs": [
        {
          "internalType": "uint256",
          "name": "_electionId",
          "type": "uint256"
        }
      ],
      "name": "getElectionResults",
      "outputs": [
        {
          "components": [
            {
              "internalType": "uint256",
              "name": "id",
              "type": "uint256"
            },
            {
              "internalType": "string",
              "name": "name",
              "type": "string"
            },
            {
              "internalType": "string",
              "name": "party",
              "type": "string"
            },
            {
              "internalType": "uint256",
              "name": "age",
              "type": "uint256"
            },
            {
              "internalType": "string",
              "name": "gender",
              "type": "string"
            },
            {
              "internalType": "address",
              "name": "candidateAddress",
              "type": "address"
            },
            {
              "internalType": "uint256",
              "name": "voteCount",
              "type": "uint256"
            }
          ],
          "internalType": "struct Voting.Candidate[]",
          "name": "",
          "type": "tuple[]"
        },
        {
          "internalType": "uint256",
          "name": "",
          "type": "uint256"
        }
      ],
      "stateMutability": "view",
      "type": "function"
    },
    {
      "inputs": [
        {
          "internalType": "uint256",
          "name": "_electionId",
          "type": "uint256"
        }
      ],
      "name": "getPollResults",
      "outputs": [
        {
          "components": [
            {
              "internalType": "uint256",
              "name": "pollId",
              "type": "uint256"
            },
            {
              "internalType": "string",
              "name": "winnerName",
              "type": "string"
            },
            {
              "internalType": "string",
              "name": "partyName",
              "type": "string"
            },
            {
              "internalType": "address",
              "name": "winnerAdd",
              "type": "address"
            }
          ],
          "internalType": "struct Voting.PollInfo[]",
          "name": "",
          "type": "tuple[]"
        }
      ],
      "stateMutability": "view",
      "type": "function"
    },
    {
      "inputs": [],
      "name": "getTotalRegisteredVoters",
      "outputs": [
        {
          "internalType": "uint256",
          "name": "",
          "type": "uint256"
        }
      ],
      "stateMutability": "view",
      "type": "function"
    },
    {
      "inputs": [],
      "name": "getVotingStatus",
      "outputs": [
        {
          "internalType": "string",
          "name": "",
          "type": "string"
        }
      ],
      "stateMutability": "view",
      "type": "function"
    },
    {
      "inputs": [
        {
          "internalType": "address",
          "name": "_address",
          "type": "address"
        }
      ],
      "name": "isAdmin",
      "outputs": [
        {
          "internalType": "bool",
          "name": "",
          "type": "bool"
        }
      ],
      "stateMutability": "view",
      "type": "function"
    },
    {
      "inputs": [
        {
          "internalType": "uint256",
          "name": "_electionId",
          "type": "uint256"
        }
      ],
      "name": "isElectionActive",
      "outputs": [
        {
          "internalType": "bool",
          "name": "",
          "type": "bool"
        }
      ],
      "stateMutability": "view",
      "type": "function"
    },
    {
      "inputs": [
        {
          "internalType": "address",
          "name": "_address",
          "type": "address"
        }
      ],
      "name": "isVoter",
      "outputs": [
        {
          "internalType": "bool",
          "name": "",
          "type": "bool"
        }
      ],
      "stateMutability": "view",
      "type": "function"
    },
    {
      "inputs": [],
      "name": "maxCandidates",
      "outputs": [
        {
          "internalType": "uint256",
          "name": "",
          "type": "uint256"
        }
      ],
      "stateMutability": "view",
      "type": "function"
    },
    {
      "inputs": [],
      "name": "maxVotingDuration",
      "outputs": [
        {
          "internalType": "uint256",
          "name": "",
          "type": "uint256"
        }
      ],
      "stateMutability": "view",
      "type": "function"
    },
    {
      "inputs": [],
      "name": "owner",
      "outputs": [
        {
          "internalType": "address",
          "name": "",
          "type": "address"
        }
      ],
      "stateMutability": "view",
      "type": "function"
    },
    {
      "inputs": [],
      "name": "pause",
      "outputs": [],
      "stateMutability": "nonpayable",
      "type": "function"
    },
    {
      "inputs": [],
      "name": "paused",
      "outputs": [
        {
          "internalType": "bool",
          "name": "",
          "type": "bool"
        }
      ],
      "stateMutability": "view",
      "type": "function"
    },
    {
      "inputs": [
        {
          "internalType": "uint256",
          "name": "",
          "type": "uint256"
        },
        {
          "internalType": "uint256",
          "name": "",
          "type": "uint256"
        }
      ],
      "name": "pollResults",
      "outputs": [
        {
          "internalType": "uint256",
          "name": "pollId",
          "type": "uint256"
        },
        {
          "internalType": "string",
          "name": "winnerName",
          "type": "string"
        },
        {
          "internalType": "string",
          "name": "partyName",
          "type": "string"
        },
        {
          "internalType": "address",
          "name": "winnerAdd",
          "type": "address"
        }
      ],
      "stateMutability": "view",
      "type": "function"
    },
    {
      "inputs": [
        {
          "internalType": "address",
          "name": "_voter",
          "type": "address"
        }
      ],
      "name": "registerVoter",
      "outputs": [],
      "stateMutability": "nonpayable",
      "type": "function"
    },
    {
      "inputs": [
        {
          "internalType": "address",
          "name": "",
          "type": "address"
        }
      ],
      "name": "registeredVoters",
      "outputs": [
        {
          "internalType": "bool",
          "name": "",
          "type": "bool"
        }
      ],
      "stateMutability": "view",
      "type": "function"
    },
    {
      "inputs": [
        {
          "internalType": "address",
          "name": "_admin",
          "type": "address"
        }
      ],
      "name": "removeAdmin",
      "outputs": [],
      "stateMutability": "nonpayable",
      "type": "function"
    },
    {
      "inputs": [
        {
          "internalType": "string",
          "name": "_feedback",
          "type": "string"
        }
      ],
      "name": "submitFeedback",
      "outputs": [],
      "stateMutability": "nonpayable",
      "type": "function"
    },
    {
      "inputs": [],
      "name": "unpause",
      "outputs": [],
      "stateMutability": "nonpayable",
      "type": "function"
    },
    {
      "inputs": [
        {
          "internalType": "uint256",
          "name": "_maxCandidates",
          "type": "uint256"
        }
      ],
      "name": "updateMaxCandidates",
      "outputs": [],
      "stateMutability": "nonpayable",
      "type": "function"
    },
    {
      "inputs": [
        {
          "internalType": "uint256",
          "name": "_maxDuration",
          "type": "uint256"
        }
      ],
      "name": "updateMaxVotingDuration",
      "outputs": [],
      "stateMutability": "nonpayable",
      "type": "function"
    },
    {
      "inputs": [
        {
          "internalType": "uint256",
          "name": "_electionId",
          "type": "uint256"
        },
        {
          "internalType": "address",
          "name": "_voter",
          "type": "address"
        }
      ],
      "name": "verifyVote",
      "outputs": [
        {
          "internalType": "bool",
          "name": "",
          "type": "bool"
        }
      ],
      "stateMutability": "view",
      "type": "function"
    },
    {
      "inputs": [
        {
          "internalType": "uint256",
          "name": "_age",
          "type": "uint256"
        }
      ],
      "name": "voterRegister",
      "outputs": [],
      "stateMutability": "nonpayable",
      "type": "function"
    },
    {
      "inputs": [],
      "name": "votingStatus",
      "outputs": [
        {
          "internalType": "string",
          "name": "",
          "type": "string"
        }
      ],
      "stateMutability": "view",
      "type": "function"
    }
  ],
  "bytecode": "0x6080604052600a60085562093a806009556040518060400160405280601681526020017f566f74696e6720686173206e6f74207374617274656400000000000000000000815250600a9081620000569190620003a1565b503480156200006457600080fd5b5060016000819055506000600160006101000a81548160ff02191690831515021790555033600160026101000a81548173ffffffffffffffffffffffffffffffffffffffff021916908373ffffffffffffffffffffffffffffffffffffffff1602179055506001600460003373ffffffffffffffffffffffffffffffffffffffff1673ffffffffffffffffffffffffffffffffffffffff16815260200190815260200160002060006101000a81548160ff02191690831515021790555062000488565b600081519050919050565b7f4e487b7100000000000000000000000000000000000000000000000000000000600052604160045260246000fd5b7f4e487b7100000000000000000000000000000000000000000000000000000000600052602260045260246000fd5b60006002820490506001821680620001a957607f821691505b602082108103620001bf57620001be62000161565b5b50919050565b60008190508160005260206000209050919050565b60006020601f8301049050919050565b600082821b905092915050565b600060088302620002297fffffffffffffffffffffffffffffffffffffffffffffffffffffffffffffffff82620001ea565b620002358683620001ea565b95508019841693508086168417925050509392505050565b6000819050919050565b6000819050919050565b6000620002826200027c62000276846200024d565b62000257565b6200024d565b9050919050565b6000819050919050565b6200029e8362000261565b620002b6620002ad8262000289565b848454620001f7565b825550505050565b600090565b620002cd620002be565b620002da81848462000293565b505050565b5b818110156200030257620002f6600082620002c3565b600181019050620002e0565b5050565b601f82111562000351576200031b81620001c5565b6200032684620001da565b8101602085101562000336578190505b6200034e6200034585620001da565b830182620002df565b50505b505050565b600082821c905092915050565b6000620003766000198460080262000356565b1980831691505092915050565b600062000391838362000363565b9150826002028217905092915050565b620003ac8262000127565b67ffffffffffffffff811115620003c857620003c762000132565b5b620003d4825462000190565b620003e182828562000306565b600060209050601f83116001811462000419576000841562000404578287015190505b62000410858262000383565b86555062000480565b601f1984166200042986620001c5565b60005b8281101562000453578489015182556001820191506020850194506020810190506200042c565b868310156200047357848901516200046f601f89168262000363565b8355505b6001600288020188555050505b505050505050565b61515380620004986000396000f3fe608060405234801561001057600080fd5b50600436106102115760003560e01c80636ee17f6f11610125578063a7687f11116100ad578063c6af250c1161007c578063c6af250c14610622578063c7882cf214610655578063e341a62314610671578063e8ededa61461068d578063e8f7d8f6146106be57610211565b8063a7687f1114610588578063a7771ee3146105a4578063a9ff6df1146105d4578063aab46b7f1461060457610211565b8063911cbef9116100f4578063911cbef9146104de578063997d2830146104fa5780639c98bcbb146105185780639d49257c146105345780639d7107771461055257610211565b80636ee17f6f1461046a578063704802751461049a5780638456cb59146104b65780638da5cb5b146104c057610211565b806338db6dd3116101a85780635c975abb116101775780635c975abb146103a85780635e12845e146103c65780635e6fef01146103f657806365af2ac81461042e57806369a37b3e1461044c57610211565b806338db6dd3146103345780633f4ba83a14610350578063429b62e51461035a578063581c281c1461038a57610211565b806324d7806c116101e457806324d7806c1461029c5780632c0a3f89146102cc5780632c7f3457146102e857806333b4097b1461030457610211565b80630306bae2146102165780631785f53c1461024657806319f41a40146102625780631f7cb26a14610280575b600080fd5b610230600480360381019061022b91906136d1565b6106da565b60405161023d919061372c565b60405180910390f35b610260600480360381019061025b9190613747565b61078b565b005b61026a61099a565b6040516102779190613804565b60405180910390f35b61029a6004803603810190610295919061395b565b610a28565b005b6102b660048036038101906102b19190613747565b610d85565b6040516102c3919061372c565b60405180910390f35b6102e660048036038101906102e19190613a2a565b610ddb565b005b61030260048036038101906102fd9190613a6a565b611255565b005b61031e60048036038101906103199190613a6a565b61133a565b60405161032b9190613c2b565b60405180910390f35b61034e60048036038101906103499190613747565b611576565b005b610358611735565b005b610374600480360381019061036f9190613747565b6117cf565b604051610381919061372c565b60405180910390f35b6103926117ef565b60405161039f9190613804565b60405180910390f35b6103b0611881565b6040516103bd919061372c565b60405180910390f35b6103e060048036038101906103db9190613a6a565b611898565b6040516103ed9190613db9565b60405180910390f35b610410600480360381019061040b9190613a6a565b611b7d565b60405161042599989796959493929190613dea565b60405180910390f35b610436611ce8565b6040516104439190613e85565b60405180910390f35b610454611cee565b6040516104619190613e85565b60405180910390f35b610484600480360381019061047f9190613a6a565b611d41565b604051610491919061372c565b60405180910390f35b6104b460048036038101906104af9190613747565b611dc9565b005b6104be611f49565b005b6104c8611fe3565b6040516104d59190613eaf565b60405180910390f35b6104f860048036038101906104f39190613eca565b612009565b005b610502612292565b60405161050f9190613e85565b60405180910390f35b610532600480360381019061052d9190613a6a565b612298565b005b61053c61285d565b6040516105499190613e85565b60405180910390f35b61056c60048036038101906105679190613a6a565b612863565b60405161057f9796959493929190613f55565b60405180910390f35b6105a2600480360381019061059d9190613a6a565b612a2b565b005b6105be60048036038101906105b99190613747565b612c82565b6040516105cb919061372c565b60405180910390f35b6105ee60048036038101906105e99190613747565b612cd8565b6040516105fb919061372c565b60405180910390f35b61060c612cf8565b6040516106199190613eaf565b60405180910390f35b61063c60048036038101906106379190613a2a565b612d1e565b60405161064c9493929190613fd2565b60405180910390f35b61066f600480360381019061066a9190613a6a565b612e9b565b005b61068b60048036038101906106869190614085565b612f80565b005b6106a760048036038101906106a29190613a6a565b61305b565b6040516106b59291906140d2565b60405180910390f35b6106d860048036038101906106d39190613a6a565b613352565b005b6000826007548110610721576040517f08c379a00000000000000000000000000000000000000000000000000000000081526004016107189061414e565b60405180910390fd5b6003600085815260200190815260200160002060080160008473ffffffffffffffffffffffffffffffffffffffff1673ffffffffffffffffffffffffffffffffffffffff16815260200190815260200160002060009054906101000a900460ff1691505092915050565b600160029054906101000a900473ffffffffffffffffffffffffffffffffffffffff1673ffffffffffffffffffffffffffffffffffffffff163373ffffffffffffffffffffffffffffffffffffffff161461081b576040517f08c379a0000000000000000000000000000000000000000000000000000000008152600401610812906141ba565b60405180910390fd5b6108236134c9565b600160029054906101000a900473ffffffffffffffffffffffffffffffffffffffff1673ffffffffffffffffffffffffffffffffffffffff168173ffffffffffffffffffffffffffffffffffffffff16036108b3576040517f08c379a00000000000000000000000000000000000000000000000000000000081526004016108aa90614226565b60405180910390fd5b600460008273ffffffffffffffffffffffffffffffffffffffff1673ffffffffffffffffffffffffffffffffffffffff16815260200190815260200160002060009054906101000a900460ff1661093f576040517f08c379a000000000000000000000000000000000000000000000000000000000815260040161093690614292565b60405180910390fd5b6000600460008373ffffffffffffffffffffffffffffffffffffffff1673ffffffffffffffffffffffffffffffffffffffff16815260200190815260200160002060006101000a81548160ff02191690831515021790555050565b600a80546109a7906142e1565b80601f01602080910402602001604051908101604052809291908181526020018280546109d3906142e1565b8015610a205780601f106109f557610100808354040283529160200191610a20565b820191906000526020600020905b815481529060010190602001808311610a0357829003601f168201915b505050505081565b600460003373ffffffffffffffffffffffffffffffffffffffff1673ffffffffffffffffffffffffffffffffffffffff16815260200190815260200160002060009054906101000a900460ff16610ab4576040517f08c379a0000000000000000000000000000000000000000000000000000000008152600401610aab9061435e565b60405180910390fd5b846007548110610af9576040517f08c379a0000000000000000000000000000000000000000000000000000000008152600401610af09061414e565b60405180910390fd5b8560036000828152602001908152602001600020600301544210610b52576040517f08c379a0000000000000000000000000000000000000000000000000000000008152600401610b49906143ca565b60405180910390fd5b610b5a6134c9565b6012841015610b9e576040517f08c379a0000000000000000000000000000000000000000000000000000000008152600401610b959061445c565b60405180910390fd5b600854600360008981526020019081526020016000206006018054905010610bfb576040517f08c379a0000000000000000000000000000000000000000000000000000000008152600401610bf2906144c8565b60405180910390fd5b6000600360008981526020019081526020016000209050600081600601805490509050816006016040518060e001604052808381526020018a81526020018981526020018881526020018781526020013373ffffffffffffffffffffffffffffffffffffffff16815260200160008152509080600181540180825580915050600190039060005260206000209060070201600090919091909150600082015181600001556020820151816001019081610cb49190614694565b506040820151816002019081610cca9190614694565b50606082015181600301556080820151816004019081610cea9190614694565b5060a08201518160050160006101000a81548173ffffffffffffffffffffffffffffffffffffffff021916908373ffffffffffffffffffffffffffffffffffffffff16021790555060c082015181600601555050887f503cfceb0fb2178c5fb47ff394c816e4075abc8066c3dcb16d08a76847ee6e16828a8a604051610d7293929190614766565b60405180910390a2505050505050505050565b6000600460008373ffffffffffffffffffffffffffffffffffffffff1673ffffffffffffffffffffffffffffffffffffffff16815260200190815260200160002060009054906101000a900460ff169050919050565b600560003373ffffffffffffffffffffffffffffffffffffffff1673ffffffffffffffffffffffffffffffffffffffff16815260200190815260200160002060009054906101000a900460ff16610e67576040517f08c379a0000000000000000000000000000000000000000000000000000000008152600401610e5e906147f7565b60405180910390fd5b816007548110610eac576040517f08c379a0000000000000000000000000000000000000000000000000000000008152600401610ea39061414e565b60405180910390fd5b826003600082815260200190815260200160002060050160009054906101000a900460ff16610f10576040517f08c379a0000000000000000000000000000000000000000000000000000000008152600401610f0790614863565b60405180910390fd5b60036000828152602001908152602001600020600401544210610f68576040517f08c379a0000000000000000000000000000000000000000000000000000000008152600401610f5f906148cf565b60405180910390fd5b610f706134c9565b60018054906101000a900460ff1615610fbe576040517f08c379a0000000000000000000000000000000000000000000000000000000008152600401610fb59061493b565b60405180910390fd5b60018060016101000a81548160ff02191690831515021790555060006003600086815260200190815260200160002090508060080160003373ffffffffffffffffffffffffffffffffffffffff1673ffffffffffffffffffffffffffffffffffffffff16815260200190815260200160002060009054906101000a900460ff161561107e576040517f08c379a0000000000000000000000000000000000000000000000000000000008152600401611075906149a7565b60405180910390fd5b806006018054905084106110c7576040517f08c379a00000000000000000000000000000000000000000000000000000000081526004016110be90614a13565b60405180910390fd5b60018160080160003373ffffffffffffffffffffffffffffffffffffffff1673ffffffffffffffffffffffffffffffffffffffff16815260200190815260200160002060006101000a81548160ff02191690831515021790555080600601848154811061113757611136614a33565b5b9060005260206000209060070201600601600081548092919061115990614a91565b919050555080600901600081548092919061117390614a91565b919050555080600b015481600601858154811061119357611192614a33565b5b90600052602060002090600702016006015411156111e5578060060184815481106111c1576111c0614a33565b5b90600052602060002090600702016006015481600b01819055508381600a01819055505b3373ffffffffffffffffffffffffffffffffffffffff16857f2acce567deca3aabf56327adbb4524bd5318936eaefa69e3a5208ffda0cfec098660405161122c9190613e85565b60405180910390a35060006001806101000a81548160ff02191690831515021790555050505050565b600160029054906101000a900473ffffffffffffffffffffffffffffffffffffffff1673ffffffffffffffffffffffffffffffffffffffff163373ffffffffffffffffffffffffffffffffffffffff16146112e5576040517f08c379a00000000000000000000000000000000000000000000000000000000081526004016112dc906141ba565b60405180910390fd5b6112ed6134c9565b60008111611330576040517f08c379a000000000000000000000000000000000000000000000000000000000815260040161132790614b4b565b60405180910390fd5b8060098190555050565b6060816007548110611381576040517f08c379a00000000000000000000000000000000000000000000000000000000081526004016113789061414e565b60405180910390fd5b60066000848152602001908152602001600020805480602002602001604051908101604052809291908181526020016000905b8282101561156a5783829060005260206000209060040201604051806080016040529081600082015481526020016001820180546113f1906142e1565b80601f016020809104026020016040519081016040528092919081815260200182805461141d906142e1565b801561146a5780601f1061143f5761010080835404028352916020019161146a565b820191906000526020600020905b81548152906001019060200180831161144d57829003601f168201915b50505050508152602001600282018054611483906142e1565b80601f01602080910402602001604051908101604052809291908181526020018280546114af906142e1565b80156114fc5780601f106114d1576101008083540402835291602001916114fc565b820191906000526020600020905b8154815290600101906020018083116114df57829003601f168201915b505050505081526020016003820160009054906101000a900473ffffffffffffffffffffffffffffffffffffffff1673ffffffffffffffffffffffffffffffffffffffff1673ffffffffffffffffffffffffffffffffffffffff1681525050815260200190600101906113b4565b50505050915050919050565b600460003373ffffffffffffffffffffffffffffffffffffffff1673ffffffffffffffffffffffffffffffffffffffff16815260200190815260200160002060009054906101000a900460ff16611602576040517f08c379a00000000000000000000000000000000000000000000000000000000081526004016115f99061435e565b60405180910390fd5b61160a6134c9565b600560008273ffffffffffffffffffffffffffffffffffffffff1673ffffffffffffffffffffffffffffffffffffffff16815260200190815260200160002060009054906101000a900460ff1615611697576040517f08c379a000000000000000000000000000000000000000000000000000000000815260040161168e90614bb7565b60405180910390fd5b6001600560008373ffffffffffffffffffffffffffffffffffffffff1673ffffffffffffffffffffffffffffffffffffffff16815260200190815260200160002060006101000a81548160ff0219169083151502179055508073ffffffffffffffffffffffffffffffffffffffff167fb6be2187d059cc2a55fe29e0e503b566e1e0f8c8780096e185429350acffd3dd60405160405180910390a250565b600160029054906101000a900473ffffffffffffffffffffffffffffffffffffffff1673ffffffffffffffffffffffffffffffffffffffff163373ffffffffffffffffffffffffffffffffffffffff16146117c5576040517f08c379a00000000000000000000000000000000000000000000000000000000081526004016117bc906141ba565b60405180910390fd5b6117cd613513565b565b60046020528060005260406000206000915054906101000a900460ff1681565b6060600a80546117fe906142e1565b80601f016020809104026020016040519081016040528092919081815260200182805461182a906142e1565b80156118775780601f1061184c57610100808354040283529160200191611877565b820191906000526020600020905b81548152906001019060200180831161185a57829003601f168201915b5050505050905090565b6000600160009054906101000a900460ff16905090565b60608160075481106118df576040517f08c379a00000000000000000000000000000000000000000000000000000000081526004016118d69061414e565b60405180910390fd5b60036000848152602001908152602001600020600601805480602002602001604051908101604052809291908181526020016000905b82821015611b7157838290600052602060002090600702016040518060e001604052908160008201548152602001600182018054611952906142e1565b80601f016020809104026020016040519081016040528092919081815260200182805461197e906142e1565b80156119cb5780601f106119a0576101008083540402835291602001916119cb565b820191906000526020600020905b8154815290600101906020018083116119ae57829003601f168201915b505050505081526020016002820180546119e4906142e1565b80601f0160208091040260200160405190810160405280929190818152602001828054611a10906142e1565b8015611a5d5780601f10611a3257610100808354040283529160200191611a5d565b820191906000526020600020905b815481529060010190602001808311611a4057829003601f168201915b5050505050815260200160038201548152602001600482018054611a80906142e1565b80601f0160208091040260200160405190810160405280929190818152602001828054611aac906142e1565b8015611af95780601f10611ace57610100808354040283529160200191611af9565b820191906000526020600020905b815481529060010190602001808311611adc57829003601f168201915b505050505081526020016005820160009054906101000a900473ffffffffffffffffffffffffffffffffffffffff1673ffffffffffffffffffffffffffffffffffffffff1673ffffffffffffffffffffffffffffffffffffffff16815260200160068201548152505081526020019060010190611915565b50505050915050919050565b6003602052806000526040600020600091509050806000015490806001018054611ba6906142e1565b80601f0160208091040260200160405190810160405280929190818152602001828054611bd2906142e1565b8015611c1f5780601f10611bf457610100808354040283529160200191611c1f565b820191906000526020600020905b815481529060010190602001808311611c0257829003601f168201915b505050505090806002018054611c34906142e1565b80601f0160208091040260200160405190810160405280929190818152602001828054611c60906142e1565b8015611cad5780601f10611c8257610100808354040283529160200191611cad565b820191906000526020600020905b815481529060010190602001808311611c9057829003601f168201915b5050505050908060030154908060040154908060050160009054906101000a900460ff169080600901549080600a01549080600b0154905089565b60085481565b6000806000905060005b600754811015611d3957600360008281526020019081526020016000206009015482611d249190614bd7565b91508080611d3190614a91565b915050611cf8565b508091505090565b6000816007548110611d88576040517f08c379a0000000000000000000000000000000000000000000000000000000008152600401611d7f9061414e565b60405180910390fd5b60006003600085815260200190815260200160002090508060050160009054906101000a900460ff168015611dc05750806004015442105b92505050919050565b600160029054906101000a900473ffffffffffffffffffffffffffffffffffffffff1673ffffffffffffffffffffffffffffffffffffffff163373ffffffffffffffffffffffffffffffffffffffff1614611e59576040517f08c379a0000000000000000000000000000000000000000000000000000000008152600401611e50906141ba565b60405180910390fd5b611e616134c9565b600460008273ffffffffffffffffffffffffffffffffffffffff1673ffffffffffffffffffffffffffffffffffffffff16815260200190815260200160002060009054906101000a900460ff1615611eee576040517f08c379a0000000000000000000000000000000000000000000000000000000008152600401611ee590614c57565b60405180910390fd5b6001600460008373ffffffffffffffffffffffffffffffffffffffff1673ffffffffffffffffffffffffffffffffffffffff16815260200190815260200160002060006101000a81548160ff02191690831515021790555050565b600160029054906101000a900473ffffffffffffffffffffffffffffffffffffffff1673ffffffffffffffffffffffffffffffffffffffff163373ffffffffffffffffffffffffffffffffffffffff1614611fd9576040517f08c379a0000000000000000000000000000000000000000000000000000000008152600401611fd0906141ba565b60405180910390fd5b611fe1613576565b565b600160029054906101000a900473ffffffffffffffffffffffffffffffffffffffff1681565b600460003373ffffffffffffffffffffffffffffffffffffffff1673ffffffffffffffffffffffffffffffffffffffff16815260200190815260200160002060009054906101000a900460ff16612095576040517f08c379a000000000000000000000000000000000000000000000000000000000815260040161208c9061435e565b60405180910390fd5b61209d6134c9565b4281116120df576040517f08c379a00000000000000000000000000000000000000000000000000000000081526004016120d690614cc3565b60405180910390fd5b60095442826120ee9190614ce3565b111561212f576040517f08c379a000000000000000000000000000000000000000000000000000000000815260040161212690614d89565b60405180910390fd5b600060036000600754815260200190815260200160002090506007548160000181905550838160010190816121649190614694565b50828160020190816121769190614694565b5042816003018190555081816004018190555060018160050160006101000a81548160ff021916908315150217905550600081600a0181905550600081600b01819055506040518060400160405280601281526020017f566f74696e6720696e2070726f67726573730000000000000000000000000000815250600a90816121fe9190614694565b506007547f43131521170c5b80ffe9526cfec987f5a24eb1f6c4bda47c41a5e4b8388afe5c8584604051612233929190614da9565b60405180910390a27ff8c022056754dbacca05aff710dc315a2fa7699ae9309fda403cd1e55c11d40f428360405161226c929190614dd9565b60405180910390a16007600081548092919061228790614a91565b919050555050505050565b60075481565b600460003373ffffffffffffffffffffffffffffffffffffffff1673ffffffffffffffffffffffffffffffffffffffff16815260200190815260200160002060009054906101000a900460ff16612324576040517f08c379a000000000000000000000000000000000000000000000000000000000815260040161231b9061435e565b60405180910390fd5b806007548110612369576040517f08c379a00000000000000000000000000000000000000000000000000000000081526004016123609061414e565b60405180910390fd5b6123716134c9565b60018054906101000a900460ff16156123bf576040517f08c379a00000000000000000000000000000000000000000000000000000000081526004016123b69061493b565b60405180910390fd5b60018060016101000a81548160ff02191690831515021790555060006003600084815260200190815260200160002090508060050160009054906101000a900460ff16612441576040517f08c379a000000000000000000000000000000000000000000000000000000000815260040161243890614e4e565b60405180910390fd5b60008160050160006101000a81548160ff0219169083151502179055506040518060400160405280601081526020017f566f74696e672068617320656e64656400000000000000000000000000000000815250600a90816124a29190614694565b50600081600b015411156128115760008160060182600a0154815481106124cc576124cb614a33565b5b90600052602060002090600702016040518060e0016040529081600082015481526020016001820180546124ff906142e1565b80601f016020809104026020016040519081016040528092919081815260200182805461252b906142e1565b80156125785780601f1061254d57610100808354040283529160200191612578565b820191906000526020600020905b81548152906001019060200180831161255b57829003601f168201915b50505050508152602001600282018054612591906142e1565b80601f01602080910402602001604051908101604052809291908181526020018280546125bd906142e1565b801561260a5780601f106125df5761010080835404028352916020019161260a565b820191906000526020600020905b8154815290600101906020018083116125ed57829003601f168201915b505050505081526020016003820154815260200160048201805461262d906142e1565b80601f0160208091040260200160405190810160405280929190818152602001828054612659906142e1565b80156126a65780601f1061267b576101008083540402835291602001916126a6565b820191906000526020600020905b81548152906001019060200180831161268957829003601f168201915b505050505081526020016005820160009054906101000a900473ffffffffffffffffffffffffffffffffffffffff1673ffffffffffffffffffffffffffffffffffffffff1673ffffffffffffffffffffffffffffffffffffffff168152602001600682015481525050905060066000858152602001908152602001600020604051806080016040528086815260200183602001518152602001836040015181526020018360a0015173ffffffffffffffffffffffffffffffffffffffff1681525090806001815401808255809150506001900390600052602060002090600402016000909190919091506000820151816000015560208201518160010190816127af9190614694565b5060408201518160020190816127c59190614694565b5060608201518160030160006101000a81548173ffffffffffffffffffffffffffffffffffffffff021916908373ffffffffffffffffffffffffffffffffffffffff1602179055505050505b827f562cd572b2ba3b666cd989fc4ca98419ec81e75f04528df9d9d76fdb7807ee7160405160405180910390a25060006001806101000a81548160ff0219169083151502179055505050565b60095481565b60006060806000806000808760075481106128b3576040517f08c379a00000000000000000000000000000000000000000000000000000000081526004016128aa9061414e565b60405180910390fd5b6000600360008b8152602001908152602001600020905080600001548160010182600201836003015484600401548560050160009054906101000a900460ff168660090154858054612904906142e1565b80601f0160208091040260200160405190810160405280929190818152602001828054612930906142e1565b801561297d5780601f106129525761010080835404028352916020019161297d565b820191906000526020600020905b81548152906001019060200180831161296057829003601f168201915b50505050509550848054612990906142e1565b80601f01602080910402602001604051908101604052809291908181526020018280546129bc906142e1565b8015612a095780601f106129de57610100808354040283529160200191612a09565b820191906000526020600020905b8154815290600101906020018083116129ec57829003601f168201915b5050505050945098509850985098509850985098505050919395979092949650565b600460003373ffffffffffffffffffffffffffffffffffffffff1673ffffffffffffffffffffffffffffffffffffffff16815260200190815260200160002060009054906101000a900460ff16612ab7576040517f08c379a0000000000000000000000000000000000000000000000000000000008152600401612aae9061435e565b60405180910390fd5b806007548110612afc576040517f08c379a0000000000000000000000000000000000000000000000000000000008152600401612af39061414e565b60405180910390fd5b612b046134c9565b60018054906101000a900460ff1615612b52576040517f08c379a0000000000000000000000000000000000000000000000000000000008152600401612b499061493b565b60405180910390fd5b60018060016101000a81548160ff02191690831515021790555060006003600084815260200190815260200160002090508060050160009054906101000a900460ff16612bd4576040517f08c379a0000000000000000000000000000000000000000000000000000000008152600401612bcb90614e4e565b60405180910390fd5b60008160050160006101000a81548160ff0219169083151502179055506040518060400160405280601781526020017f566f74696e672073746f707065642062792061646d696e000000000000000000815250600a9081612c359190614694565b50827f562cd572b2ba3b666cd989fc4ca98419ec81e75f04528df9d9d76fdb7807ee7160405160405180910390a25060006001806101000a81548160ff0219169083151502179055505050565b6000600560008373ffffffffffffffffffffffffffffffffffffffff1673ffffffffffffffffffffffffffffffffffffffff16815260200190815260200160002060009054906101000a900460ff169050919050565b60056020528060005260406000206000915054906101000a900460ff1681565b600260009054906101000a900473ffffffffffffffffffffffffffffffffffffffff1681565b60066020528160005260406000208181548110612d3a57600080fd5b906000526020600020906004020160009150915050806000015490806001018054612d64906142e1565b80601f0160208091040260200160405190810160405280929190818152602001828054612d90906142e1565b8015612ddd5780601f10612db257610100808354040283529160200191612ddd565b820191906000526020600020905b815481529060010190602001808311612dc057829003601f168201915b505050505090806002018054612df2906142e1565b80601f0160208091040260200160405190810160405280929190818152602001828054612e1e906142e1565b8015612e6b5780601f10612e4057610100808354040283529160200191612e6b565b820191906000526020600020905b815481529060010190602001808311612e4e57829003601f168201915b5050505050908060030160009054906101000a900473ffffffffffffffffffffffffffffffffffffffff16905084565b600160029054906101000a900473ffffffffffffffffffffffffffffffffffffffff1673ffffffffffffffffffffffffffffffffffffffff163373ffffffffffffffffffffffffffffffffffffffff1614612f2b576040517f08c379a0000000000000000000000000000000000000000000000000000000008152600401612f22906141ba565b60405180910390fd5b612f336134c9565b60008111612f76576040517f08c379a0000000000000000000000000000000000000000000000000000000008152600401612f6d90614ee0565b60405180910390fd5b8060088190555050565b600560003373ffffffffffffffffffffffffffffffffffffffff1673ffffffffffffffffffffffffffffffffffffffff16815260200190815260200160002060009054906101000a900460ff1661300c576040517f08c379a0000000000000000000000000000000000000000000000000000000008152600401613003906147f7565b60405180910390fd5b7fa44edc2c3122d75f6eca14609b38b1f9e84dea9f4bc89419f056771b59c5014c338383600160075461303f9190614ce3565b60405161304f9493929190614f2d565b60405180910390a15050565b606060008260075481106130a4576040517f08c379a000000000000000000000000000000000000000000000000000000000815260040161309b9061414e565b60405180910390fd5b600060036000868152602001908152602001600020905080600601816009015481805480602002602001604051908101604052809291908181526020016000905b8282101561334157838290600052602060002090600702016040518060e001604052908160008201548152602001600182018054613122906142e1565b80601f016020809104026020016040519081016040528092919081815260200182805461314e906142e1565b801561319b5780601f106131705761010080835404028352916020019161319b565b820191906000526020600020905b81548152906001019060200180831161317e57829003601f168201915b505050505081526020016002820180546131b4906142e1565b80601f01602080910402602001604051908101604052809291908181526020018280546131e0906142e1565b801561322d5780601f106132025761010080835404028352916020019161322d565b820191906000526020600020905b81548152906001019060200180831161321057829003601f168201915b5050505050815260200160038201548152602001600482018054613250906142e1565b80601f016020809104026020016040519081016040528092919081815260200182805461327c906142e1565b80156132c95780601f1061329e576101008083540402835291602001916132c9565b820191906000526020600020905b8154815290600101906020018083116132ac57829003601f168201915b505050505081526020016005820160009054906101000a900473ffffffffffffffffffffffffffffffffffffffff1673ffffffffffffffffffffffffffffffffffffffff1673ffffffffffffffffffffffffffffffffffffffff168152602001600682015481525050815260200190600101906130e5565b505050509150935093505050915091565b61335a6134c9565b600560003373ffffffffffffffffffffffffffffffffffffffff1673ffffffffffffffffffffffffffffffffffffffff16815260200190815260200160002060009054906101000a900460ff16156133e7576040517f08c379a00000000000000000000000000000000000000000000000000000000081526004016133de90614fb9565b60405180910390fd5b601281101561342b576040517f08c379a000000000000000000000000000000000000000000000000000000000815260040161342290615025565b60405180910390fd5b6001600560003373ffffffffffffffffffffffffffffffffffffffff1673ffffffffffffffffffffffffffffffffffffffff16815260200190815260200160002060006101000a81548160ff0219169083151502179055503373ffffffffffffffffffffffffffffffffffffffff167fb6be2187d059cc2a55fe29e0e503b566e1e0f8c8780096e185429350acffd3dd60405160405180910390a250565b6134d1611881565b15613511576040517f08c379a000000000000000000000000000000000000000000000000000000000815260040161350890615091565b60405180910390fd5b565b61351b6135d8565b6000600160006101000a81548160ff0219169083151502179055507f5db9ee0a495bf2e6ff9c91a7834c1ba4fdd244a5e8aa4e537bd38aeae4b073aa61355f613621565b60405161356c9190613eaf565b60405180910390a1565b61357e6134c9565b60018060006101000a81548160ff0219169083151502179055507f62e78cea01bee320cd4e420270b5ea74000d11b0c9f74754ebdbfc544b05a2586135c1613621565b6040516135ce9190613eaf565b60405180910390a1565b6135e0611881565b61361f576040517f08c379a0000000000000000000000000000000000000000000000000000000008152600401613616906150fd565b60405180910390fd5b565b600033905090565b6000604051905090565b600080fd5b600080fd5b6000819050919050565b6136508161363d565b811461365b57600080fd5b50565b60008135905061366d81613647565b92915050565b600073ffffffffffffffffffffffffffffffffffffffff82169050919050565b600061369e82613673565b9050919050565b6136ae81613693565b81146136b957600080fd5b50565b6000813590506136cb816136a5565b92915050565b600080604083850312156136e8576136e7613633565b5b60006136f68582860161365e565b9250506020613707858286016136bc565b9150509250929050565b60008115159050919050565b61372681613711565b82525050565b6000602082019050613741600083018461371d565b92915050565b60006020828403121561375d5761375c613633565b5b600061376b848285016136bc565b91505092915050565b600081519050919050565b600082825260208201905092915050565b60005b838110156137ae578082015181840152602081019050613793565b60008484015250505050565b6000601f19601f8301169050919050565b60006137d682613774565b6137e0818561377f565b93506137f0818560208601613790565b6137f9816137ba565b840191505092915050565b6000602082019050818103600083015261381e81846137cb565b905092915050565b600080fd5b600080fd5b7f4e487b7100000000000000000000000000000000000000000000000000000000600052604160045260246000fd5b613868826137ba565b810181811067ffffffffffffffff8211171561388757613886613830565b5b80604052505050565b600061389a613629565b90506138a6828261385f565b919050565b600067ffffffffffffffff8211156138c6576138c5613830565b5b6138cf826137ba565b9050602081019050919050565b82818337600083830152505050565b60006138fe6138f9846138ab565b613890565b90508281526020810184848401111561391a5761391961382b565b5b6139258482856138dc565b509392505050565b600082601f83011261394257613941613826565b5b81356139528482602086016138eb565b91505092915050565b600080600080600060a0868803121561397757613976613633565b5b60006139858882890161365e565b955050602086013567ffffffffffffffff8111156139a6576139a5613638565b5b6139b28882890161392d565b945050604086013567ffffffffffffffff8111156139d3576139d2613638565b5b6139df8882890161392d565b93505060606139f08882890161365e565b925050608086013567ffffffffffffffff811115613a1157613a10613638565b5b613a1d8882890161392d565b9150509295509295909350565b60008060408385031215613a4157613a40613633565b5b6000613a4f8582860161365e565b9250506020613a608582860161365e565b9150509250929050565b600060208284031215613a8057613a7f613633565b5b6000613a8e8482850161365e565b91505092915050565b600081519050919050565b600082825260208201905092915050565b6000819050602082019050919050565b613acc8161363d565b82525050565b600082825260208201905092915050565b6000613aee82613774565b613af88185613ad2565b9350613b08818560208601613790565b613b11816137ba565b840191505092915050565b613b2581613693565b82525050565b6000608083016000830151613b436000860182613ac3565b5060208301518482036020860152613b5b8282613ae3565b91505060408301518482036040860152613b758282613ae3565b9150506060830151613b8a6060860182613b1c565b508091505092915050565b6000613ba18383613b2b565b905092915050565b6000602082019050919050565b6000613bc182613a97565b613bcb8185613aa2565b935083602082028501613bdd85613ab3565b8060005b85811015613c195784840389528151613bfa8582613b95565b9450613c0583613ba9565b925060208a01995050600181019050613be1565b50829750879550505050505092915050565b60006020820190508181036000830152613c458184613bb6565b905092915050565b600081519050919050565b600082825260208201905092915050565b6000819050602082019050919050565b600060e083016000830151613c916000860182613ac3565b5060208301518482036020860152613ca98282613ae3565b91505060408301518482036040860152613cc38282613ae3565b9150506060830151613cd86060860182613ac3565b5060808301518482036080860152613cf08282613ae3565b91505060a0830151613d0560a0860182613b1c565b5060c0830151613d1860c0860182613ac3565b508091505092915050565b6000613d2f8383613c79565b905092915050565b6000602082019050919050565b6000613d4f82613c4d565b613d598185613c58565b935083602082028501613d6b85613c69565b8060005b85811015613da75784840389528151613d888582613d23565b9450613d9383613d37565b925060208a01995050600181019050613d6f565b50829750879550505050505092915050565b60006020820190508181036000830152613dd38184613d44565b905092915050565b613de48161363d565b82525050565b600061012082019050613e00600083018c613ddb565b8181036020830152613e12818b6137cb565b90508181036040830152613e26818a6137cb565b9050613e356060830189613ddb565b613e426080830188613ddb565b613e4f60a083018761371d565b613e5c60c0830186613ddb565b613e6960e0830185613ddb565b613e77610100830184613ddb565b9a9950505050505050505050565b6000602082019050613e9a6000830184613ddb565b92915050565b613ea981613693565b82525050565b6000602082019050613ec46000830184613ea0565b92915050565b600080600060608486031215613ee357613ee2613633565b5b600084013567ffffffffffffffff811115613f0157613f00613638565b5b613f0d8682870161392d565b935050602084013567ffffffffffffffff811115613f2e57613f2d613638565b5b613f3a8682870161392d565b9250506040613f4b8682870161365e565b9150509250925092565b600060e082019050613f6a600083018a613ddb565b8181036020830152613f7c81896137cb565b90508181036040830152613f9081886137cb565b9050613f9f6060830187613ddb565b613fac6080830186613ddb565b613fb960a083018561371d565b613fc660c0830184613ddb565b98975050505050505050565b6000608082019050613fe76000830187613ddb565b8181036020830152613ff981866137cb565b9050818103604083015261400d81856137cb565b905061401c6060830184613ea0565b95945050505050565b600080fd5b600080fd5b60008083601f84011261404557614044613826565b5b8235905067ffffffffffffffff81111561406257614061614025565b5b60208301915083600182028301111561407e5761407d61402a565b5b9250929050565b6000806020838503121561409c5761409b613633565b5b600083013567ffffffffffffffff8111156140ba576140b9613638565b5b6140c68582860161402f565b92509250509250929050565b600060408201905081810360008301526140ec8185613d44565b90506140fb6020830184613ddb565b9392505050565b7f456c656374696f6e20646f6573206e6f74206578697374000000000000000000600082015250565b600061413860178361377f565b915061414382614102565b602082019050919050565b600060208201905081810360008301526141678161412b565b9050919050565b7f4e6f7420746865206f776e657200000000000000000000000000000000000000600082015250565b60006141a4600d8361377f565b91506141af8261416e565b602082019050919050565b600060208201905081810360008301526141d381614197565b9050919050565b7f43616e6e6f742072656d6f7665206f776e65722061732061646d696e00000000600082015250565b6000614210601c8361377f565b915061421b826141da565b602082019050919050565b6000602082019050818103600083015261423f81614203565b9050919050565b7f41646472657373206973206e6f7420616e2061646d696e000000000000000000600082015250565b600061427c60178361377f565b915061428782614246565b602082019050919050565b600060208201905081810360008301526142ab8161426f565b9050919050565b7f4e487b7100000000000000000000000000000000000000000000000000000000600052602260045260246000fd5b600060028204905060018216806142f957607f821691505b60208210810361430c5761430b6142b2565b5b50919050565b7f4e6f7420616e2061646d696e0000000000000000000000000000000000000000600082015250565b6000614348600c8361377f565b915061435382614312565b602082019050919050565b600060208201905081810360008301526143778161433b565b9050919050565b7f566f74696e6720616c7265616479207374617274656400000000000000000000600082015250565b60006143b460168361377f565b91506143bf8261437e565b602082019050919050565b600060208201905081810360008301526143e3816143a7565b9050919050565b7f43616e646964617465206d757374206265206174206c6561737420313820796560008201527f617273206f6c6400000000000000000000000000000000000000000000000000602082015250565b600061444660278361377f565b9150614451826143ea565b604082019050919050565b6000602082019050818103600083015261447581614439565b9050919050565b7f4d6178696d756d2063616e646964617465732072656163686564000000000000600082015250565b60006144b2601a8361377f565b91506144bd8261447c565b602082019050919050565b600060208201905081810360008301526144e1816144a5565b9050919050565b60008190508160005260206000209050919050565b60006020601f8301049050919050565b600082821b905092915050565b60006008830261454a7fffffffffffffffffffffffffffffffffffffffffffffffffffffffffffffffff8261450d565b614554868361450d565b95508019841693508086168417925050509392505050565b6000819050919050565b600061459161458c6145878461363d565b61456c565b61363d565b9050919050565b6000819050919050565b6145ab83614576565b6145bf6145b782614598565b84845461451a565b825550505050565b600090565b6145d46145c7565b6145df8184846145a2565b505050565b5b81811015614603576145f86000826145cc565b6001810190506145e5565b5050565b601f82111561464857614619816144e8565b614622846144fd565b81016020851015614631578190505b61464561463d856144fd565b8301826145e4565b50505b505050565b600082821c905092915050565b600061466b6000198460080261464d565b1980831691505092915050565b6000614684838361465a565b9150826002028217905092915050565b61469d82613774565b67ffffffffffffffff8111156146b6576146b5613830565b5b6146c082546142e1565b6146cb828285614607565b600060209050601f8311600181146146fe57600084156146ec578287015190505b6146f68582614678565b86555061475e565b601f19841661470c866144e8565b60005b828110156147345784890151825560018201915060208501945060208101905061470f565b86831015614751578489015161474d601f89168261465a565b8355505b6001600288020188555050505b505050505050565b600060608201905061477b6000830186613ddb565b818103602083015261478d81856137cb565b905081810360408301526147a181846137cb565b9050949350505050565b7f4e6f742061207265676973746572656420766f74657200000000000000000000600082015250565b60006147e160168361377f565b91506147ec826147ab565b602082019050919050565b60006020820190508181036000830152614810816147d4565b9050919050565b7f456c656374696f6e206973206e6f742061637469766500000000000000000000600082015250565b600061484d60168361377f565b915061485882614817565b602082019050919050565b6000602082019050818103600083015261487c81614840565b9050919050565b7f456c656374696f6e2068617320656e6465640000000000000000000000000000600082015250565b60006148b960128361377f565b91506148c482614883565b602082019050919050565b600060208201905081810360008301526148e8816148ac565b9050919050565b7f4e6f207265656e7472616e637920616c6c6f7765640000000000000000000000600082015250565b600061492560158361377f565b9150614930826148ef565b602082019050919050565b6000602082019050818103600083015261495481614918565b9050919050565b7f416c726561647920766f74656400000000000000000000000000000000000000600082015250565b6000614991600d8361377f565b915061499c8261495b565b602082019050919050565b600060208201905081810360008301526149c081614984565b9050919050565b7f496e76616c69642063616e646964617465204944000000000000000000000000600082015250565b60006149fd60148361377f565b9150614a08826149c7565b602082019050919050565b60006020820190508181036000830152614a2c816149f0565b9050919050565b7f4e487b7100000000000000000000000000000000000000000000000000000000600052603260045260246000fd5b7f4e487b7100000000000000000000000000000000000000000000000000000000600052601160045260246000fd5b6000614a9c8261363d565b91507fffffffffffffffffffffffffffffffffffffffffffffffffffffffffffffffff8203614ace57614acd614a62565b5b600182019050919050565b7f4d6178206475726174696f6e206d75737420626520677265617465722074686160008201527f6e20300000000000000000000000000000000000000000000000000000000000602082015250565b6000614b3560238361377f565b9150614b4082614ad9565b604082019050919050565b60006020820190508181036000830152614b6481614b28565b9050919050565b7f566f74657220616c726561647920726567697374657265640000000000000000600082015250565b6000614ba160188361377f565b9150614bac82614b6b565b602082019050919050565b60006020820190508181036000830152614bd081614b94565b9050919050565b6000614be28261363d565b9150614bed8361363d565b9250828201905080821115614c0557614c04614a62565b5b92915050565b7f4164647265737320697320616c726561647920616e2061646d696e0000000000600082015250565b6000614c41601b8361377f565b9150614c4c82614c0b565b602082019050919050565b60006020820190508181036000830152614c7081614c34565b9050919050565b7f456e642074696d65206d75737420626520696e20746865206675747572650000600082015250565b6000614cad601e8361377f565b9150614cb882614c77565b602082019050919050565b60006020820190508181036000830152614cdc81614ca0565b9050919050565b6000614cee8261363d565b9150614cf98361363d565b9250828203905081811115614d1157614d10614a62565b5b92915050565b7f566f74696e67206475726174696f6e2065786365656473206d6178696d756d2060008201527f616c6c6f77656400000000000000000000000000000000000000000000000000602082015250565b6000614d7360278361377f565b9150614d7e82614d17565b604082019050919050565b60006020820190508181036000830152614da281614d66565b9050919050565b60006040820190508181036000830152614dc381856137cb565b9050614dd26020830184613ddb565b9392505050565b6000604082019050614dee6000830185613ddb565b614dfb6020830184613ddb565b9392505050565b7f456c656374696f6e20616c726561647920656e64656400000000000000000000600082015250565b6000614e3860168361377f565b9150614e4382614e02565b602082019050919050565b60006020820190508181036000830152614e6781614e2b565b9050919050565b7f4d61782063616e64696461746573206d7573742062652067726561746572207460008201527f68616e2030000000000000000000000000000000000000000000000000000000602082015250565b6000614eca60258361377f565b9150614ed582614e6e565b604082019050919050565b60006020820190508181036000830152614ef981614ebd565b9050919050565b6000614f0c838561377f565b9350614f198385846138dc565b614f22836137ba565b840190509392505050565b6000606082019050614f426000830187613ea0565b8181036020830152614f55818587614f00565b9050614f646040830184613ddb565b95945050505050565b7f416c7265616479207265676973746572656420617320766f7465720000000000600082015250565b6000614fa3601b8361377f565b9150614fae82614f6d565b602082019050919050565b60006020820190508181036000830152614fd281614f96565b9050919050565b7f4d757374206265206174206c65617374203138207965617273206f6c64000000600082015250565b600061500f601d8361377f565b915061501a82614fd9565b602082019050919050565b6000602082019050818103600083015261503e81615002565b9050919050565b7f5061757361626c653a2070617573656400000000000000000000000000000000600082015250565b600061507b60108361377f565b915061508682615045565b602082019050919050565b600060208201905081810360008301526150aa8161506e565b9050919050565b7f5061757361626c653a206e6f7420706175736564000000000000000000000000600082015250565b60006150e760148361377f565b91506150f2826150b1565b602082019050919050565b60006020820190508181036000830152615116816150da565b905091905056fea2646970667358221220cbd0a9a341d2d83dd0224bf9f1a9498790ae8d02e4196c1291bca0f1e735c69564736f6c63430008130033",
  "linkReferences": {},
  "deployedLinkReferences": {}
}