{
  "_format": "hh-sol-artifact-1",
  "contractName": "Voting",
  "sourceName": "contracts/Voting.sol",
  "abi": [
    {
      "inputs": [],
      "stateMutability": "nonpayable",
      "type": "constructor"
    },
    {
      "anonymous": false,
      "inputs": [
        {
          "indexed": true,
          "internalType": "uint256",
          "name": "electionId",
          "type": "uint256"
        },
        {
          "indexed": false,
          "internalType": "uint256",
          "name": "candidateId",
          "type": "uint256"
        },
        {
          "indexed": false,
          "internalType": "string",
          "name": "name",
          "type": "string"
        },
        {
          "indexed": false,
          "internalType": "string",
          "name": "party",
          "type": "string"
        }
      ],
      "name": "CandidateAdded",
      "type": "event"
    },
    {
      "anonymous": false,
      "inputs": [
        {
          "indexed": true,
          "internalType": "uint256",
          "name": "electionId",
          "type": "uint256"
        },
        {
          "indexed": false,
          "internalType": "string",
          "name": "name",
          "type": "string"
        },
        {
          "indexed": false,
          "internalType": "uint256",
          "name": "endTime",
          "type": "uint256"
        }
      ],
      "name": "ElectionCreated",
      "type": "event"
    },
    {
      "anonymous": false,
      "inputs": [
        {
          "indexed": true,
          "internalType": "uint256",
          "name": "electionId",
          "type": "uint256"
        }
      ],
      "name": "ElectionEnded",
      "type": "event"
    },
    {
      "anonymous": false,
      "inputs": [
        {
          "indexed": false,
          "internalType": "address",
          "name": "voter",
          "type": "address"
        },
        {
          "indexed": false,
          "internalType": "string",
          "name": "feedback",
          "type": "string"
        },
        {
          "indexed": false,
          "internalType": "uint256",
          "name": "pollId",
          "type": "uint256"
        }
      ],
      "name": "FeedbackSubmitted",
      "type": "event"
    },
    {
      "anonymous": false,
      "inputs": [
        {
          "indexed": true,
          "internalType": "uint256",
          "name": "electionId",
          "type": "uint256"
        },
        {
          "indexed": true,
          "internalType": "address",
          "name": "voter",
          "type": "address"
        },
        {
          "indexed": false,
          "internalType": "uint256",
          "name": "candidateId",
          "type": "uint256"
        }
      ],
      "name": "VoteCast",
      "type": "event"
    },
    {
      "anonymous": false,
      "inputs": [
        {
          "indexed": true,
          "internalType": "address",
          "name": "voter",
          "type": "address"
        }
      ],
      "name": "VoterRegistered",
      "type": "event"
    },
    {
      "anonymous": false,
      "inputs": [
        {
          "indexed": false,
          "internalType": "uint256",
          "name": "startTime",
          "type": "uint256"
        },
        {
          "indexed": false,
          "internalType": "uint256",
          "name": "endTime",
          "type": "uint256"
        }
      ],
      "name": "VotingStarted",
      "type": "event"
    },
    {
      "inputs": [
        {
          "internalType": "address",
          "name": "_admin",
          "type": "address"
        }
      ],
      "name": "addAdmin",
      "outputs": [],
      "stateMutability": "nonpayable",
      "type": "function"
    },
    {
      "inputs": [
        {
          "internalType": "uint256",
          "name": "_electionId",
          "type": "uint256"
        },
        {
          "internalType": "string",
          "name": "_name",
          "type": "string"
        },
        {
          "internalType": "string",
          "name": "_party",
          "type": "string"
        },
        {
          "internalType": "uint256",
          "name": "_age",
          "type": "uint256"
        },
        {
          "internalType": "string",
          "name": "_gender",
          "type": "string"
        }
      ],
      "name": "addCandidate",
      "outputs": [],
      "stateMutability": "nonpayable",
      "type": "function"
    },
    {
      "inputs": [
        {
          "internalType": "address",
          "name": "",
          "type": "address"
        }
      ],
      "name": "admins",
      "outputs": [
        {
          "internalType": "bool",
          "name": "",
          "type": "bool"
        }
      ],
      "stateMutability": "view",
      "type": "function"
    },
    {
      "inputs": [
        {
          "internalType": "uint256",
          "name": "_electionId",
          "type": "uint256"
        },
        {
          "internalType": "uint256",
          "name": "_candidateId",
          "type": "uint256"
        }
      ],
      "name": "castVote",
      "outputs": [],
      "stateMutability": "nonpayable",
      "type": "function"
    },
    {
      "inputs": [
        {
          "internalType": "string",
          "name": "_name",
          "type": "string"
        },
        {
          "internalType": "string",
          "name": "_description",
          "type": "string"
        },
        {
          "internalType": "uint256",
          "name": "_endTime",
          "type": "uint256"
        }
      ],
      "name": "createElection",
      "outputs": [],
      "stateMutability": "nonpayable",
      "type": "function"
    },
    {
      "inputs": [],
      "name": "electionCommission",
      "outputs": [
        {
          "internalType": "address",
          "name": "",
          "type": "address"
        }
      ],
      "stateMutability": "view",
      "type": "function"
    },
    {
      "inputs": [],
      "name": "electionCount",
      "outputs": [
        {
          "internalType": "uint256",
          "name": "",
          "type": "uint256"
        }
      ],
      "stateMutability": "view",
      "type": "function"
    },
    {
      "inputs": [
        {
          "internalType": "uint256",
          "name": "",
          "type": "uint256"
        }
      ],
      "name": "elections",
      "outputs": [
        {
          "internalType": "uint256",
          "name": "id",
          "type": "uint256"
        },
        {
          "internalType": "string",
          "name": "name",
          "type": "string"
        },
        {
          "internalType": "string",
          "name": "description",
          "type": "string"
        },
        {
          "internalType": "uint256",
          "name": "startTime",
          "type": "uint256"
        },
        {
          "internalType": "uint256",
          "name": "endTime",
          "type": "uint256"
        },
        {
          "internalType": "bool",
          "name": "isActive",
          "type": "bool"
        },
        {
          "internalType": "uint256",
          "name": "totalVotes",
          "type": "uint256"
        }
      ],
      "stateMutability": "view",
      "type": "function"
    },
    {
      "inputs": [
        {
          "internalType": "uint256",
          "name": "_electionId",
          "type": "uint256"
        }
      ],
      "name": "emergencyStop",
      "outputs": [],
      "stateMutability": "nonpayable",
      "type": "function"
    },
    {
      "inputs": [
        {
          "internalType": "uint256",
          "name": "_electionId",
          "type": "uint256"
        }
      ],
      "name": "endElection",
      "outputs": [],
      "stateMutability": "nonpayable",
      "type": "function"
    },
    {
      "inputs": [
        {
          "internalType": "uint256",
          "name": "_electionId",
          "type": "uint256"
        }
      ],
      "name": "getElection",
      "outputs": [
        {
          "internalType": "uint256",
          "name": "id",
          "type": "uint256"
        },
        {
          "internalType": "string",
          "name": "name",
          "type": "string"
        },
        {
          "internalType": "string",
          "name": "description",
          "type": "string"
        },
        {
          "internalType": "uint256",
          "name": "startTime",
          "type": "uint256"
        },
        {
          "internalType": "uint256",
          "name": "endTime",
          "type": "uint256"
        },
        {
          "internalType": "bool",
          "name": "isActive",
          "type": "bool"
        },
        {
          "internalType": "uint256",
          "name": "totalVotes",
          "type": "uint256"
        }
      ],
      "stateMutability": "view",
      "type": "function"
    },
    {
      "inputs": [
        {
          "internalType": "uint256",
          "name": "_electionId",
          "type": "uint256"
        }
      ],
      "name": "getElectionCandidates",
      "outputs": [
        {
          "components": [
            {
              "internalType": "uint256",
              "name": "id",
              "type": "uint256"
            },
            {
              "internalType": "string",
              "name": "name",
              "type": "string"
            },
            {
              "internalType": "string",
              "name": "party",
              "type": "string"
            },
            {
              "internalType": "uint256",
              "name": "age",
              "type": "uint256"
            },
            {
              "internalType": "string",
              "name": "gender",
              "type": "string"
            },
            {
              "internalType": "address",
              "name": "candidateAddress",
              "type": "address"
            },
            {
              "internalType": "uint256",
              "name": "voteCount",
              "type": "uint256"
            }
          ],
          "internalType": "struct Voting.Candidate[]",
          "name": "",
          "type": "tuple[]"
        }
      ],
      "stateMutability": "view",
      "type": "function"
    },
    {
      "inputs": [
        {
          "internalType": "uint256",
          "name": "_electionId",
          "type": "uint256"
        }
      ],
      "name": "getElectionResults",
      "outputs": [
        {
          "components": [
            {
              "internalType": "uint256",
              "name": "id",
              "type": "uint256"
            },
            {
              "internalType": "string",
              "name": "name",
              "type": "string"
            },
            {
              "internalType": "string",
              "name": "party",
              "type": "string"
            },
            {
              "internalType": "uint256",
              "name": "age",
              "type": "uint256"
            },
            {
              "internalType": "string",
              "name": "gender",
              "type": "string"
            },
            {
              "internalType": "address",
              "name": "candidateAddress",
              "type": "address"
            },
            {
              "internalType": "uint256",
              "name": "voteCount",
              "type": "uint256"
            }
          ],
          "internalType": "struct Voting.Candidate[]",
          "name": "",
          "type": "tuple[]"
        },
        {
          "internalType": "uint256",
          "name": "",
          "type": "uint256"
        }
      ],
      "stateMutability": "view",
      "type": "function"
    },
    {
      "inputs": [
        {
          "internalType": "uint256",
          "name": "_electionId",
          "type": "uint256"
        }
      ],
      "name": "getPollResults",
      "outputs": [
        {
          "components": [
            {
              "internalType": "uint256",
              "name": "pollId",
              "type": "uint256"
            },
            {
              "internalType": "string",
              "name": "winnerName",
              "type": "string"
            },
            {
              "internalType": "string",
              "name": "partyName",
              "type": "string"
            },
            {
              "internalType": "address",
              "name": "winnerAdd",
              "type": "address"
            }
          ],
          "internalType": "struct Voting.PollInfo[]",
          "name": "",
          "type": "tuple[]"
        }
      ],
      "stateMutability": "view",
      "type": "function"
    },
    {
      "inputs": [],
      "name": "getTotalRegisteredVoters",
      "outputs": [
        {
          "internalType": "uint256",
          "name": "",
          "type": "uint256"
        }
      ],
      "stateMutability": "view",
      "type": "function"
    },
    {
      "inputs": [],
      "name": "getVotingStatus",
      "outputs": [
        {
          "internalType": "string",
          "name": "",
          "type": "string"
        }
      ],
      "stateMutability": "view",
      "type": "function"
    },
    {
      "inputs": [
        {
          "internalType": "address",
          "name": "_address",
          "type": "address"
        }
      ],
      "name": "isAdmin",
      "outputs": [
        {
          "internalType": "bool",
          "name": "",
          "type": "bool"
        }
      ],
      "stateMutability": "view",
      "type": "function"
    },
    {
      "inputs": [
        {
          "internalType": "uint256",
          "name": "_electionId",
          "type": "uint256"
        }
      ],
      "name": "isElectionActive",
      "outputs": [
        {
          "internalType": "bool",
          "name": "",
          "type": "bool"
        }
      ],
      "stateMutability": "view",
      "type": "function"
    },
    {
      "inputs": [
        {
          "internalType": "address",
          "name": "_address",
          "type": "address"
        }
      ],
      "name": "isVoter",
      "outputs": [
        {
          "internalType": "bool",
          "name": "",
          "type": "bool"
        }
      ],
      "stateMutability": "view",
      "type": "function"
    },
    {
      "inputs": [],
      "name": "maxCandidates",
      "outputs": [
        {
          "internalType": "uint256",
          "name": "",
          "type": "uint256"
        }
      ],
      "stateMutability": "view",
      "type": "function"
    },
    {
      "inputs": [],
      "name": "maxVotingDuration",
      "outputs": [
        {
          "internalType": "uint256",
          "name": "",
          "type": "uint256"
        }
      ],
      "stateMutability": "view",
      "type": "function"
    },
    {
      "inputs": [],
      "name": "owner",
      "outputs": [
        {
          "internalType": "address",
          "name": "",
          "type": "address"
        }
      ],
      "stateMutability": "view",
      "type": "function"
    },
    {
      "inputs": [
        {
          "internalType": "uint256",
          "name": "",
          "type": "uint256"
        },
        {
          "internalType": "uint256",
          "name": "",
          "type": "uint256"
        }
      ],
      "name": "pollResults",
      "outputs": [
        {
          "internalType": "uint256",
          "name": "pollId",
          "type": "uint256"
        },
        {
          "internalType": "string",
          "name": "winnerName",
          "type": "string"
        },
        {
          "internalType": "string",
          "name": "partyName",
          "type": "string"
        },
        {
          "internalType": "address",
          "name": "winnerAdd",
          "type": "address"
        }
      ],
      "stateMutability": "view",
      "type": "function"
    },
    {
      "inputs": [
        {
          "internalType": "address",
          "name": "_voter",
          "type": "address"
        }
      ],
      "name": "registerVoter",
      "outputs": [],
      "stateMutability": "nonpayable",
      "type": "function"
    },
    {
      "inputs": [
        {
          "internalType": "address",
          "name": "",
          "type": "address"
        }
      ],
      "name": "registeredVoters",
      "outputs": [
        {
          "internalType": "bool",
          "name": "",
          "type": "bool"
        }
      ],
      "stateMutability": "view",
      "type": "function"
    },
    {
      "inputs": [
        {
          "internalType": "address",
          "name": "_admin",
          "type": "address"
        }
      ],
      "name": "removeAdmin",
      "outputs": [],
      "stateMutability": "nonpayable",
      "type": "function"
    },
    {
      "inputs": [
        {
          "internalType": "string",
          "name": "_feedback",
          "type": "string"
        }
      ],
      "name": "submitFeedback",
      "outputs": [],
      "stateMutability": "nonpayable",
      "type": "function"
    },
    {
      "inputs": [
        {
          "internalType": "uint256",
          "name": "_maxCandidates",
          "type": "uint256"
        }
      ],
      "name": "updateMaxCandidates",
      "outputs": [],
      "stateMutability": "nonpayable",
      "type": "function"
    },
    {
      "inputs": [
        {
          "internalType": "uint256",
          "name": "_maxDuration",
          "type": "uint256"
        }
      ],
      "name": "updateMaxVotingDuration",
      "outputs": [],
      "stateMutability": "nonpayable",
      "type": "function"
    },
    {
      "inputs": [
        {
          "internalType": "uint256",
          "name": "_electionId",
          "type": "uint256"
        },
        {
          "internalType": "address",
          "name": "_voter",
          "type": "address"
        }
      ],
      "name": "verifyVote",
      "outputs": [
        {
          "internalType": "bool",
          "name": "",
          "type": "bool"
        }
      ],
      "stateMutability": "view",
      "type": "function"
    },
    {
      "inputs": [
        {
          "internalType": "string",
          "name": "",
          "type": "string"
        },
        {
          "internalType": "uint256",
          "name": "_age",
          "type": "uint256"
        },
        {
          "internalType": "string",
          "name": "",
          "type": "string"
        }
      ],
      "name": "voterRegister",
      "outputs": [],
      "stateMutability": "nonpayable",
      "type": "function"
    },
    {
      "inputs": [],
      "name": "votingStatus",
      "outputs": [
        {
          "internalType": "string",
          "name": "",
          "type": "string"
        }
      ],
      "stateMutability": "view",
      "type": "function"
    }
  ],
  "bytecode": "0x6080604052600a60075562093a806008556040518060400160405280601681526020017f566f74696e6720686173206e6f74207374617274656400000000000000000000815250600990816200005691906200037d565b503480156200006457600080fd5b50336000806101000a81548173ffffffffffffffffffffffffffffffffffffffff021916908373ffffffffffffffffffffffffffffffffffffffff1602179055506001600360003373ffffffffffffffffffffffffffffffffffffffff1673ffffffffffffffffffffffffffffffffffffffff16815260200190815260200160002060006101000a81548160ff02191690831515021790555062000464565b600081519050919050565b7f4e487b7100000000000000000000000000000000000000000000000000000000600052604160045260246000fd5b7f4e487b7100000000000000000000000000000000000000000000000000000000600052602260045260246000fd5b600060028204905060018216806200018557607f821691505b6020821081036200019b576200019a6200013d565b5b50919050565b60008190508160005260206000209050919050565b60006020601f8301049050919050565b600082821b905092915050565b600060088302620002057fffffffffffffffffffffffffffffffffffffffffffffffffffffffffffffffff82620001c6565b620002118683620001c6565b95508019841693508086168417925050509392505050565b6000819050919050565b6000819050919050565b60006200025e62000258620002528462000229565b62000233565b62000229565b9050919050565b6000819050919050565b6200027a836200023d565b62000292620002898262000265565b848454620001d3565b825550505050565b600090565b620002a96200029a565b620002b68184846200026f565b505050565b5b81811015620002de57620002d26000826200029f565b600181019050620002bc565b5050565b601f8211156200032d57620002f781620001a1565b6200030284620001b6565b8101602085101562000312578190505b6200032a6200032185620001b6565b830182620002bb565b50505b505050565b600082821c905092915050565b6000620003526000198460080262000332565b1980831691505092915050565b60006200036d83836200033f565b9150826002028217905092915050565b620003888262000103565b67ffffffffffffffff811115620003a457620003a36200010e565b5b620003b082546200016c565b620003bd828285620002e2565b600060209050601f831160018114620003f55760008415620003e0578287015190505b620003ec85826200035f565b8655506200045c565b601f1984166200040586620001a1565b60005b828110156200042f5784890151825560018201915060208501945060208101905062000408565b868310156200044f57848901516200044b601f8916826200033f565b8355505b6001600288020188555050505b505050505050565b614b0a80620004746000396000f3fe608060405234801561001057600080fd5b50600436106101f05760003560e01c8063704802751161010f578063a7687f11116100a2578063c6af250c11610071578063c6af250c146105e9578063c7882cf21461061c578063e341a62314610638578063e8ededa614610654576101f0565b8063a7687f111461054f578063a7771ee31461056b578063a9ff6df11461059b578063aab46b7f146105cb576101f0565b8063997d2830116100de578063997d2830146104c15780639c98bcbb146104df5780639d49257c146104fb5780639d71077714610519576101f0565b8063704802751461044f5780638da5cb5b1461046b578063911cbef91461048957806393e5fed2146104a5576101f0565b806338db6dd3116101875780635e6fef01116101565780635e6fef01146103ad57806365af2ac8146103e357806369a37b3e146104015780636ee17f6f1461041f576101f0565b806338db6dd314610313578063429b62e51461032f578063581c281c1461035f5780635e12845e1461037d576101f0565b806324d7806c116101c357806324d7806c1461027b5780632c0a3f89146102ab5780632c7f3457146102c757806333b4097b146102e3576101f0565b80630306bae2146101f55780631785f53c1461022557806319f41a40146102415780631f7cb26a1461025f575b600080fd5b61020f600480360381019061020a91906131dc565b610685565b60405161021c9190613237565b60405180910390f35b61023f600480360381019061023a9190613252565b610736565b005b610249610939565b604051610256919061330f565b60405180910390f35b61027960048036038101906102749190613466565b6109c7565b005b61029560048036038101906102909190613252565b610d1c565b6040516102a29190613237565b60405180910390f35b6102c560048036038101906102c09190613535565b610d72565b005b6102e160048036038101906102dc9190613575565b6110f5565b005b6102fd60048036038101906102f89190613575565b6111d0565b60405161030a9190613736565b60405180910390f35b61032d60048036038101906103289190613252565b61140c565b005b61034960048036038101906103449190613252565b6115c3565b6040516103569190613237565b60405180910390f35b6103676115e3565b604051610374919061330f565b60405180910390f35b61039760048036038101906103929190613575565b611675565b6040516103a491906138c4565b60405180910390f35b6103c760048036038101906103c29190613575565b61195a565b6040516103da97969594939291906138f5565b60405180910390f35b6103eb611ab9565b6040516103f89190613972565b60405180910390f35b610409611abf565b6040516104169190613972565b60405180910390f35b61043960048036038101906104349190613575565b611b12565b6040516104469190613237565b60405180910390f35b61046960048036038101906104649190613252565b611b9a565b005b610473611d10565b604051610480919061399c565b60405180910390f35b6104a3600480360381019061049e91906139b7565b611d34565b005b6104bf60048036038101906104ba9190613a42565b611fa1565b005b6104c9612112565b6040516104d69190613972565b60405180910390f35b6104f960048036038101906104f49190613575565b612118565b005b6105036126d3565b6040516105109190613972565b60405180910390f35b610533600480360381019061052e9190613575565b6126d9565b60405161054697969594939291906138f5565b60405180910390f35b61056960048036038101906105649190613575565b6128a1565b005b61058560048036038101906105809190613252565b612a6e565b6040516105929190613237565b60405180910390f35b6105b560048036038101906105b09190613252565b612ac4565b6040516105c29190613237565b60405180910390f35b6105d3612ae4565b6040516105e0919061399c565b60405180910390f35b61060360048036038101906105fe9190613535565b612b0a565b6040516106139493929190613acd565b60405180910390f35b61063660048036038101906106319190613575565b612c87565b005b610652600480360381019061064d9190613b80565b612d62565b005b61066e60048036038101906106699190613575565b612e3d565b60405161067c929190613bcd565b60405180910390f35b60008260065481106106cc576040517f08c379a00000000000000000000000000000000000000000000000000000000081526004016106c390613c49565b60405180910390fd5b6002600085815260200190815260200160002060080160008473ffffffffffffffffffffffffffffffffffffffff1673ffffffffffffffffffffffffffffffffffffffff16815260200190815260200160002060009054906101000a900460ff1691505092915050565b60008054906101000a900473ffffffffffffffffffffffffffffffffffffffff1673ffffffffffffffffffffffffffffffffffffffff163373ffffffffffffffffffffffffffffffffffffffff16146107c4576040517f08c379a00000000000000000000000000000000000000000000000000000000081526004016107bb90613cb5565b60405180910390fd5b60008054906101000a900473ffffffffffffffffffffffffffffffffffffffff1673ffffffffffffffffffffffffffffffffffffffff168173ffffffffffffffffffffffffffffffffffffffff1603610852576040517f08c379a000000000000000000000000000000000000000000000000000000000815260040161084990613d21565b60405180910390fd5b600360008273ffffffffffffffffffffffffffffffffffffffff1673ffffffffffffffffffffffffffffffffffffffff16815260200190815260200160002060009054906101000a900460ff166108de576040517f08c379a00000000000000000000000000000000000000000000000000000000081526004016108d590613d8d565b60405180910390fd5b6000600360008373ffffffffffffffffffffffffffffffffffffffff1673ffffffffffffffffffffffffffffffffffffffff16815260200190815260200160002060006101000a81548160ff02191690831515021790555050565b6009805461094690613ddc565b80601f016020809104026020016040519081016040528092919081815260200182805461097290613ddc565b80156109bf5780601f10610994576101008083540402835291602001916109bf565b820191906000526020600020905b8154815290600101906020018083116109a257829003601f168201915b505050505081565b600360003373ffffffffffffffffffffffffffffffffffffffff1673ffffffffffffffffffffffffffffffffffffffff16815260200190815260200160002060009054906101000a900460ff16610a53576040517f08c379a0000000000000000000000000000000000000000000000000000000008152600401610a4a90613e59565b60405180910390fd5b846006548110610a98576040517f08c379a0000000000000000000000000000000000000000000000000000000008152600401610a8f90613c49565b60405180910390fd5b600260006006548152602001908152602001600020600401544210610af2576040517f08c379a0000000000000000000000000000000000000000000000000000000008152600401610ae990613ec5565b60405180910390fd5b6012831015610b36576040517f08c379a0000000000000000000000000000000000000000000000000000000008152600401610b2d90613f57565b60405180910390fd5b600754600260008881526020019081526020016000206006018054905010610b93576040517f08c379a0000000000000000000000000000000000000000000000000000000008152600401610b8a90613fc3565b60405180910390fd5b6000600260008881526020019081526020016000209050600081600601805490509050816006016040518060e001604052808381526020018981526020018881526020018781526020018681526020013373ffffffffffffffffffffffffffffffffffffffff16815260200160008152509080600181540180825580915050600190039060005260206000209060070201600090919091909150600082015181600001556020820151816001019081610c4c919061418f565b506040820151816002019081610c62919061418f565b50606082015181600301556080820151816004019081610c82919061418f565b5060a08201518160050160006101000a81548173ffffffffffffffffffffffffffffffffffffffff021916908373ffffffffffffffffffffffffffffffffffffffff16021790555060c082015181600601555050877f503cfceb0fb2178c5fb47ff394c816e4075abc8066c3dcb16d08a76847ee6e16828989604051610d0a93929190614261565b60405180910390a25050505050505050565b6000600360008373ffffffffffffffffffffffffffffffffffffffff1673ffffffffffffffffffffffffffffffffffffffff16815260200190815260200160002060009054906101000a900460ff169050919050565b600460003373ffffffffffffffffffffffffffffffffffffffff1673ffffffffffffffffffffffffffffffffffffffff16815260200190815260200160002060009054906101000a900460ff16610dfe576040517f08c379a0000000000000000000000000000000000000000000000000000000008152600401610df5906142f2565b60405180910390fd5b816006548110610e43576040517f08c379a0000000000000000000000000000000000000000000000000000000008152600401610e3a90613c49565b60405180910390fd5b826002600082815260200190815260200160002060050160009054906101000a900460ff16610ea7576040517f08c379a0000000000000000000000000000000000000000000000000000000008152600401610e9e9061435e565b60405180910390fd5b60026000828152602001908152602001600020600401544210610eff576040517f08c379a0000000000000000000000000000000000000000000000000000000008152600401610ef6906143ca565b60405180910390fd5b60006002600086815260200190815260200160002090508060080160003373ffffffffffffffffffffffffffffffffffffffff1673ffffffffffffffffffffffffffffffffffffffff16815260200190815260200160002060009054906101000a900460ff1615610fa5576040517f08c379a0000000000000000000000000000000000000000000000000000000008152600401610f9c90614436565b60405180910390fd5b80600601805490508410610fee576040517f08c379a0000000000000000000000000000000000000000000000000000000008152600401610fe5906144a2565b60405180910390fd5b60018160080160003373ffffffffffffffffffffffffffffffffffffffff1673ffffffffffffffffffffffffffffffffffffffff16815260200190815260200160002060006101000a81548160ff02191690831515021790555080600601848154811061105e5761105d6144c2565b5b9060005260206000209060070201600601600081548092919061108090614520565b919050555080600901600081548092919061109a90614520565b91905055503373ffffffffffffffffffffffffffffffffffffffff16857f2acce567deca3aabf56327adbb4524bd5318936eaefa69e3a5208ffda0cfec09866040516110e69190613972565b60405180910390a35050505050565b60008054906101000a900473ffffffffffffffffffffffffffffffffffffffff1673ffffffffffffffffffffffffffffffffffffffff163373ffffffffffffffffffffffffffffffffffffffff1614611183576040517f08c379a000000000000000000000000000000000000000000000000000000000815260040161117a90613cb5565b60405180910390fd5b600081116111c6576040517f08c379a00000000000000000000000000000000000000000000000000000000081526004016111bd906145da565b60405180910390fd5b8060088190555050565b6060816006548110611217576040517f08c379a000000000000000000000000000000000000000000000000000000000815260040161120e90613c49565b60405180910390fd5b60056000848152602001908152602001600020805480602002602001604051908101604052809291908181526020016000905b8282101561140057838290600052602060002090600402016040518060800160405290816000820154815260200160018201805461128790613ddc565b80601f01602080910402602001604051908101604052809291908181526020018280546112b390613ddc565b80156113005780601f106112d557610100808354040283529160200191611300565b820191906000526020600020905b8154815290600101906020018083116112e357829003601f168201915b5050505050815260200160028201805461131990613ddc565b80601f016020809104026020016040519081016040528092919081815260200182805461134590613ddc565b80156113925780601f1061136757610100808354040283529160200191611392565b820191906000526020600020905b81548152906001019060200180831161137557829003601f168201915b505050505081526020016003820160009054906101000a900473ffffffffffffffffffffffffffffffffffffffff1673ffffffffffffffffffffffffffffffffffffffff1673ffffffffffffffffffffffffffffffffffffffff16815250508152602001906001019061124a565b50505050915050919050565b600360003373ffffffffffffffffffffffffffffffffffffffff1673ffffffffffffffffffffffffffffffffffffffff16815260200190815260200160002060009054906101000a900460ff16611498576040517f08c379a000000000000000000000000000000000000000000000000000000000815260040161148f90613e59565b60405180910390fd5b600460008273ffffffffffffffffffffffffffffffffffffffff1673ffffffffffffffffffffffffffffffffffffffff16815260200190815260200160002060009054906101000a900460ff1615611525576040517f08c379a000000000000000000000000000000000000000000000000000000000815260040161151c90614646565b60405180910390fd5b6001600460008373ffffffffffffffffffffffffffffffffffffffff1673ffffffffffffffffffffffffffffffffffffffff16815260200190815260200160002060006101000a81548160ff0219169083151502179055508073ffffffffffffffffffffffffffffffffffffffff167fb6be2187d059cc2a55fe29e0e503b566e1e0f8c8780096e185429350acffd3dd60405160405180910390a250565b60036020528060005260406000206000915054906101000a900460ff1681565b6060600980546115f290613ddc565b80601f016020809104026020016040519081016040528092919081815260200182805461161e90613ddc565b801561166b5780601f106116405761010080835404028352916020019161166b565b820191906000526020600020905b81548152906001019060200180831161164e57829003601f168201915b5050505050905090565b60608160065481106116bc576040517f08c379a00000000000000000000000000000000000000000000000000000000081526004016116b390613c49565b60405180910390fd5b60026000848152602001908152602001600020600601805480602002602001604051908101604052809291908181526020016000905b8282101561194e57838290600052602060002090600702016040518060e00160405290816000820154815260200160018201805461172f90613ddc565b80601f016020809104026020016040519081016040528092919081815260200182805461175b90613ddc565b80156117a85780601f1061177d576101008083540402835291602001916117a8565b820191906000526020600020905b81548152906001019060200180831161178b57829003601f168201915b505050505081526020016002820180546117c190613ddc565b80601f01602080910402602001604051908101604052809291908181526020018280546117ed90613ddc565b801561183a5780601f1061180f5761010080835404028352916020019161183a565b820191906000526020600020905b81548152906001019060200180831161181d57829003601f168201915b505050505081526020016003820154815260200160048201805461185d90613ddc565b80601f016020809104026020016040519081016040528092919081815260200182805461188990613ddc565b80156118d65780601f106118ab576101008083540402835291602001916118d6565b820191906000526020600020905b8154815290600101906020018083116118b957829003601f168201915b505050505081526020016005820160009054906101000a900473ffffffffffffffffffffffffffffffffffffffff1673ffffffffffffffffffffffffffffffffffffffff1673ffffffffffffffffffffffffffffffffffffffff168152602001600682015481525050815260200190600101906116f2565b50505050915050919050565b600260205280600052604060002060009150905080600001549080600101805461198390613ddc565b80601f01602080910402602001604051908101604052809291908181526020018280546119af90613ddc565b80156119fc5780601f106119d1576101008083540402835291602001916119fc565b820191906000526020600020905b8154815290600101906020018083116119df57829003601f168201915b505050505090806002018054611a1190613ddc565b80601f0160208091040260200160405190810160405280929190818152602001828054611a3d90613ddc565b8015611a8a5780601f10611a5f57610100808354040283529160200191611a8a565b820191906000526020600020905b815481529060010190602001808311611a6d57829003601f168201915b5050505050908060030154908060040154908060050160009054906101000a900460ff16908060090154905087565b60075481565b6000806000905060005b600654811015611b0a57600260008281526020019081526020016000206009015482611af59190614666565b91508080611b0290614520565b915050611ac9565b508091505090565b6000816006548110611b59576040517f08c379a0000000000000000000000000000000000000000000000000000000008152600401611b5090613c49565b60405180910390fd5b60006002600085815260200190815260200160002090508060050160009054906101000a900460ff168015611b915750806004015442105b92505050919050565b60008054906101000a900473ffffffffffffffffffffffffffffffffffffffff1673ffffffffffffffffffffffffffffffffffffffff163373ffffffffffffffffffffffffffffffffffffffff1614611c28576040517f08c379a0000000000000000000000000000000000000000000000000000000008152600401611c1f90613cb5565b60405180910390fd5b600360008273ffffffffffffffffffffffffffffffffffffffff1673ffffffffffffffffffffffffffffffffffffffff16815260200190815260200160002060009054906101000a900460ff1615611cb5576040517f08c379a0000000000000000000000000000000000000000000000000000000008152600401611cac906146e6565b60405180910390fd5b6001600360008373ffffffffffffffffffffffffffffffffffffffff1673ffffffffffffffffffffffffffffffffffffffff16815260200190815260200160002060006101000a81548160ff02191690831515021790555050565b60008054906101000a900473ffffffffffffffffffffffffffffffffffffffff1681565b600360003373ffffffffffffffffffffffffffffffffffffffff1673ffffffffffffffffffffffffffffffffffffffff16815260200190815260200160002060009054906101000a900460ff16611dc0576040517f08c379a0000000000000000000000000000000000000000000000000000000008152600401611db790613e59565b60405180910390fd5b428111611e02576040517f08c379a0000000000000000000000000000000000000000000000000000000008152600401611df990614752565b60405180910390fd5b6008544282611e119190614772565b1115611e52576040517f08c379a0000000000000000000000000000000000000000000000000000000008152600401611e4990614818565b60405180910390fd5b60006002600060065481526020019081526020016000209050600654816000018190555083816001019081611e87919061418f565b5082816002019081611e99919061418f565b5042816003018190555081816004018190555060018160050160006101000a81548160ff0219169083151502179055506040518060400160405280601281526020017f566f74696e6720696e2070726f6772657373000000000000000000000000000081525060099081611f0d919061418f565b506006547f43131521170c5b80ffe9526cfec987f5a24eb1f6c4bda47c41a5e4b8388afe5c8584604051611f42929190614838565b60405180910390a27ff8c022056754dbacca05aff710dc315a2fa7699ae9309fda403cd1e55c11d40f4283604051611f7b929190614868565b60405180910390a160066000815480929190611f9690614520565b919050555050505050565b600460003373ffffffffffffffffffffffffffffffffffffffff1673ffffffffffffffffffffffffffffffffffffffff16815260200190815260200160002060009054906101000a900460ff161561202e576040517f08c379a0000000000000000000000000000000000000000000000000000000008152600401612025906148dd565b60405180910390fd5b6012821015612072576040517f08c379a000000000000000000000000000000000000000000000000000000000815260040161206990614949565b60405180910390fd5b6001600460003373ffffffffffffffffffffffffffffffffffffffff1673ffffffffffffffffffffffffffffffffffffffff16815260200190815260200160002060006101000a81548160ff0219169083151502179055503373ffffffffffffffffffffffffffffffffffffffff167fb6be2187d059cc2a55fe29e0e503b566e1e0f8c8780096e185429350acffd3dd60405160405180910390a2505050565b60065481565b600360003373ffffffffffffffffffffffffffffffffffffffff1673ffffffffffffffffffffffffffffffffffffffff16815260200190815260200160002060009054906101000a900460ff166121a4576040517f08c379a000000000000000000000000000000000000000000000000000000000815260040161219b90613e59565b60405180910390fd5b8060065481106121e9576040517f08c379a00000000000000000000000000000000000000000000000000000000081526004016121e090613c49565b60405180910390fd5b60006002600084815260200190815260200160002090508060050160009054906101000a900460ff16612251576040517f08c379a0000000000000000000000000000000000000000000000000000000008152600401612248906149b5565b60405180910390fd5b60008160050160006101000a81548160ff0219169083151502179055506040518060400160405280601081526020017f566f74696e672068617320656e64656400000000000000000000000000000000815250600990816122b2919061418f565b5060008060005b836006018054905081101561233857828460060182815481106122df576122de6144c2565b5b90600052602060002090600702016006015411156123255783600601818154811061230d5761230c6144c2565b5b90600052602060002090600702016006015492508091505b808061233090614520565b9150506122b9565b50600082111561269f57600083600601828154811061235a576123596144c2565b5b90600052602060002090600702016040518060e00160405290816000820154815260200160018201805461238d90613ddc565b80601f01602080910402602001604051908101604052809291908181526020018280546123b990613ddc565b80156124065780601f106123db57610100808354040283529160200191612406565b820191906000526020600020905b8154815290600101906020018083116123e957829003601f168201915b5050505050815260200160028201805461241f90613ddc565b80601f016020809104026020016040519081016040528092919081815260200182805461244b90613ddc565b80156124985780601f1061246d57610100808354040283529160200191612498565b820191906000526020600020905b81548152906001019060200180831161247b57829003601f168201915b50505050508152602001600382015481526020016004820180546124bb90613ddc565b80601f01602080910402602001604051908101604052809291908181526020018280546124e790613ddc565b80156125345780601f1061250957610100808354040283529160200191612534565b820191906000526020600020905b81548152906001019060200180831161251757829003601f168201915b505050505081526020016005820160009054906101000a900473ffffffffffffffffffffffffffffffffffffffff1673ffffffffffffffffffffffffffffffffffffffff1673ffffffffffffffffffffffffffffffffffffffff168152602001600682015481525050905060056000878152602001908152602001600020604051806080016040528088815260200183602001518152602001836040015181526020018360a0015173ffffffffffffffffffffffffffffffffffffffff16815250908060018154018082558091505060019003906000526020600020906004020160009091909190915060008201518160000155602082015181600101908161263d919061418f565b506040820151816002019081612653919061418f565b5060608201518160030160006101000a81548173ffffffffffffffffffffffffffffffffffffffff021916908373ffffffffffffffffffffffffffffffffffffffff1602179055505050505b847f562cd572b2ba3b666cd989fc4ca98419ec81e75f04528df9d9d76fdb7807ee7160405160405180910390a25050505050565b60085481565b6000606080600080600080876006548110612729576040517f08c379a000000000000000000000000000000000000000000000000000000000815260040161272090613c49565b60405180910390fd5b6000600260008b8152602001908152602001600020905080600001548160010182600201836003015484600401548560050160009054906101000a900460ff16866009015485805461277a90613ddc565b80601f01602080910402602001604051908101604052809291908181526020018280546127a690613ddc565b80156127f35780601f106127c8576101008083540402835291602001916127f3565b820191906000526020600020905b8154815290600101906020018083116127d657829003601f168201915b5050505050955084805461280690613ddc565b80601f016020809104026020016040519081016040528092919081815260200182805461283290613ddc565b801561287f5780601f106128545761010080835404028352916020019161287f565b820191906000526020600020905b81548152906001019060200180831161286257829003601f168201915b5050505050945098509850985098509850985098505050919395979092949650565b600360003373ffffffffffffffffffffffffffffffffffffffff1673ffffffffffffffffffffffffffffffffffffffff16815260200190815260200160002060009054906101000a900460ff1661292d576040517f08c379a000000000000000000000000000000000000000000000000000000000815260040161292490613e59565b60405180910390fd5b806006548110612972576040517f08c379a000000000000000000000000000000000000000000000000000000000815260040161296990613c49565b60405180910390fd5b60006002600084815260200190815260200160002090508060050160009054906101000a900460ff166129da576040517f08c379a00000000000000000000000000000000000000000000000000000000081526004016129d1906149b5565b60405180910390fd5b60008160050160006101000a81548160ff0219169083151502179055506040518060400160405280601781526020017f566f74696e672073746f707065642062792061646d696e00000000000000000081525060099081612a3b919061418f565b50827f562cd572b2ba3b666cd989fc4ca98419ec81e75f04528df9d9d76fdb7807ee7160405160405180910390a2505050565b6000600460008373ffffffffffffffffffffffffffffffffffffffff1673ffffffffffffffffffffffffffffffffffffffff16815260200190815260200160002060009054906101000a900460ff169050919050565b60046020528060005260406000206000915054906101000a900460ff1681565b600160009054906101000a900473ffffffffffffffffffffffffffffffffffffffff1681565b60056020528160005260406000208181548110612b2657600080fd5b906000526020600020906004020160009150915050806000015490806001018054612b5090613ddc565b80601f0160208091040260200160405190810160405280929190818152602001828054612b7c90613ddc565b8015612bc95780601f10612b9e57610100808354040283529160200191612bc9565b820191906000526020600020905b815481529060010190602001808311612bac57829003601f168201915b505050505090806002018054612bde90613ddc565b80601f0160208091040260200160405190810160405280929190818152602001828054612c0a90613ddc565b8015612c575780601f10612c2c57610100808354040283529160200191612c57565b820191906000526020600020905b815481529060010190602001808311612c3a57829003601f168201915b5050505050908060030160009054906101000a900473ffffffffffffffffffffffffffffffffffffffff16905084565b60008054906101000a900473ffffffffffffffffffffffffffffffffffffffff1673ffffffffffffffffffffffffffffffffffffffff163373ffffffffffffffffffffffffffffffffffffffff1614612d15576040517f08c379a0000000000000000000000000000000000000000000000000000000008152600401612d0c90613cb5565b60405180910390fd5b60008111612d58576040517f08c379a0000000000000000000000000000000000000000000000000000000008152600401612d4f90614a47565b60405180910390fd5b8060078190555050565b600460003373ffffffffffffffffffffffffffffffffffffffff1673ffffffffffffffffffffffffffffffffffffffff16815260200190815260200160002060009054906101000a900460ff16612dee576040517f08c379a0000000000000000000000000000000000000000000000000000000008152600401612de5906142f2565b60405180910390fd5b7fa44edc2c3122d75f6eca14609b38b1f9e84dea9f4bc89419f056771b59c5014c3383836001600654612e219190614772565b604051612e319493929190614a94565b60405180910390a15050565b60606000826006548110612e86576040517f08c379a0000000000000000000000000000000000000000000000000000000008152600401612e7d90613c49565b60405180910390fd5b600060026000868152602001908152602001600020905080600601816009015481805480602002602001604051908101604052809291908181526020016000905b8282101561312357838290600052602060002090600702016040518060e001604052908160008201548152602001600182018054612f0490613ddc565b80601f0160208091040260200160405190810160405280929190818152602001828054612f3090613ddc565b8015612f7d5780601f10612f5257610100808354040283529160200191612f7d565b820191906000526020600020905b815481529060010190602001808311612f6057829003601f168201915b50505050508152602001600282018054612f9690613ddc565b80601f0160208091040260200160405190810160405280929190818152602001828054612fc290613ddc565b801561300f5780601f10612fe45761010080835404028352916020019161300f565b820191906000526020600020905b815481529060010190602001808311612ff257829003601f168201915b505050505081526020016003820154815260200160048201805461303290613ddc565b80601f016020809104026020016040519081016040528092919081815260200182805461305e90613ddc565b80156130ab5780601f10613080576101008083540402835291602001916130ab565b820191906000526020600020905b81548152906001019060200180831161308e57829003601f168201915b505050505081526020016005820160009054906101000a900473ffffffffffffffffffffffffffffffffffffffff1673ffffffffffffffffffffffffffffffffffffffff1673ffffffffffffffffffffffffffffffffffffffff16815260200160068201548152505081526020019060010190612ec7565b505050509150935093505050915091565b6000604051905090565b600080fd5b600080fd5b6000819050919050565b61315b81613148565b811461316657600080fd5b50565b60008135905061317881613152565b92915050565b600073ffffffffffffffffffffffffffffffffffffffff82169050919050565b60006131a98261317e565b9050919050565b6131b98161319e565b81146131c457600080fd5b50565b6000813590506131d6816131b0565b92915050565b600080604083850312156131f3576131f261313e565b5b600061320185828601613169565b9250506020613212858286016131c7565b9150509250929050565b60008115159050919050565b6132318161321c565b82525050565b600060208201905061324c6000830184613228565b92915050565b6000602082840312156132685761326761313e565b5b6000613276848285016131c7565b91505092915050565b600081519050919050565b600082825260208201905092915050565b60005b838110156132b957808201518184015260208101905061329e565b60008484015250505050565b6000601f19601f8301169050919050565b60006132e18261327f565b6132eb818561328a565b93506132fb81856020860161329b565b613304816132c5565b840191505092915050565b6000602082019050818103600083015261332981846132d6565b905092915050565b600080fd5b600080fd5b7f4e487b7100000000000000000000000000000000000000000000000000000000600052604160045260246000fd5b613373826132c5565b810181811067ffffffffffffffff821117156133925761339161333b565b5b80604052505050565b60006133a5613134565b90506133b1828261336a565b919050565b600067ffffffffffffffff8211156133d1576133d061333b565b5b6133da826132c5565b9050602081019050919050565b82818337600083830152505050565b6000613409613404846133b6565b61339b565b90508281526020810184848401111561342557613424613336565b5b6134308482856133e7565b509392505050565b600082601f83011261344d5761344c613331565b5b813561345d8482602086016133f6565b91505092915050565b600080600080600060a086880312156134825761348161313e565b5b600061349088828901613169565b955050602086013567ffffffffffffffff8111156134b1576134b0613143565b5b6134bd88828901613438565b945050604086013567ffffffffffffffff8111156134de576134dd613143565b5b6134ea88828901613438565b93505060606134fb88828901613169565b925050608086013567ffffffffffffffff81111561351c5761351b613143565b5b61352888828901613438565b9150509295509295909350565b6000806040838503121561354c5761354b61313e565b5b600061355a85828601613169565b925050602061356b85828601613169565b9150509250929050565b60006020828403121561358b5761358a61313e565b5b600061359984828501613169565b91505092915050565b600081519050919050565b600082825260208201905092915050565b6000819050602082019050919050565b6135d781613148565b82525050565b600082825260208201905092915050565b60006135f98261327f565b61360381856135dd565b935061361381856020860161329b565b61361c816132c5565b840191505092915050565b6136308161319e565b82525050565b600060808301600083015161364e60008601826135ce565b506020830151848203602086015261366682826135ee565b9150506040830151848203604086015261368082826135ee565b91505060608301516136956060860182613627565b508091505092915050565b60006136ac8383613636565b905092915050565b6000602082019050919050565b60006136cc826135a2565b6136d681856135ad565b9350836020820285016136e8856135be565b8060005b85811015613724578484038952815161370585826136a0565b9450613710836136b4565b925060208a019950506001810190506136ec565b50829750879550505050505092915050565b6000602082019050818103600083015261375081846136c1565b905092915050565b600081519050919050565b600082825260208201905092915050565b6000819050602082019050919050565b600060e08301600083015161379c60008601826135ce565b50602083015184820360208601526137b482826135ee565b915050604083015184820360408601526137ce82826135ee565b91505060608301516137e360608601826135ce565b50608083015184820360808601526137fb82826135ee565b91505060a083015161381060a0860182613627565b5060c083015161382360c08601826135ce565b508091505092915050565b600061383a8383613784565b905092915050565b6000602082019050919050565b600061385a82613758565b6138648185613763565b93508360208202850161387685613774565b8060005b858110156138b25784840389528151613893858261382e565b945061389e83613842565b925060208a0199505060018101905061387a565b50829750879550505050505092915050565b600060208201905081810360008301526138de818461384f565b905092915050565b6138ef81613148565b82525050565b600060e08201905061390a600083018a6138e6565b818103602083015261391c81896132d6565b9050818103604083015261393081886132d6565b905061393f60608301876138e6565b61394c60808301866138e6565b61395960a0830185613228565b61396660c08301846138e6565b98975050505050505050565b600060208201905061398760008301846138e6565b92915050565b6139968161319e565b82525050565b60006020820190506139b1600083018461398d565b92915050565b6000806000606084860312156139d0576139cf61313e565b5b600084013567ffffffffffffffff8111156139ee576139ed613143565b5b6139fa86828701613438565b935050602084013567ffffffffffffffff811115613a1b57613a1a613143565b5b613a2786828701613438565b9250506040613a3886828701613169565b9150509250925092565b600080600060608486031215613a5b57613a5a61313e565b5b600084013567ffffffffffffffff811115613a7957613a78613143565b5b613a8586828701613438565b9350506020613a9686828701613169565b925050604084013567ffffffffffffffff811115613ab757613ab6613143565b5b613ac386828701613438565b9150509250925092565b6000608082019050613ae260008301876138e6565b8181036020830152613af481866132d6565b90508181036040830152613b0881856132d6565b9050613b17606083018461398d565b95945050505050565b600080fd5b600080fd5b60008083601f840112613b4057613b3f613331565b5b8235905067ffffffffffffffff811115613b5d57613b5c613b20565b5b602083019150836001820283011115613b7957613b78613b25565b5b9250929050565b60008060208385031215613b9757613b9661313e565b5b600083013567ffffffffffffffff811115613bb557613bb4613143565b5b613bc185828601613b2a565b92509250509250929050565b60006040820190508181036000830152613be7818561384f565b9050613bf660208301846138e6565b9392505050565b7f456c656374696f6e20646f6573206e6f74206578697374000000000000000000600082015250565b6000613c3360178361328a565b9150613c3e82613bfd565b602082019050919050565b60006020820190508181036000830152613c6281613c26565b9050919050565b7f4e6f7420746865206f776e657200000000000000000000000000000000000000600082015250565b6000613c9f600d8361328a565b9150613caa82613c69565b602082019050919050565b60006020820190508181036000830152613cce81613c92565b9050919050565b7f43616e6e6f742072656d6f7665206f776e65722061732061646d696e00000000600082015250565b6000613d0b601c8361328a565b9150613d1682613cd5565b602082019050919050565b60006020820190508181036000830152613d3a81613cfe565b9050919050565b7f41646472657373206973206e6f7420616e2061646d696e000000000000000000600082015250565b6000613d7760178361328a565b9150613d8282613d41565b602082019050919050565b60006020820190508181036000830152613da681613d6a565b9050919050565b7f4e487b7100000000000000000000000000000000000000000000000000000000600052602260045260246000fd5b60006002820490506001821680613df457607f821691505b602082108103613e0757613e06613dad565b5b50919050565b7f4e6f7420616e2061646d696e0000000000000000000000000000000000000000600082015250565b6000613e43600c8361328a565b9150613e4e82613e0d565b602082019050919050565b60006020820190508181036000830152613e7281613e36565b9050919050565b7f566f74696e672068617320616c72656164792073746172746564000000000000600082015250565b6000613eaf601a8361328a565b9150613eba82613e79565b602082019050919050565b60006020820190508181036000830152613ede81613ea2565b9050919050565b7f43616e646964617465206d757374206265206174206c6561737420313820796560008201527f617273206f6c6400000000000000000000000000000000000000000000000000602082015250565b6000613f4160278361328a565b9150613f4c82613ee5565b604082019050919050565b60006020820190508181036000830152613f7081613f34565b9050919050565b7f4d6178696d756d2063616e646964617465732072656163686564000000000000600082015250565b6000613fad601a8361328a565b9150613fb882613f77565b602082019050919050565b60006020820190508181036000830152613fdc81613fa0565b9050919050565b60008190508160005260206000209050919050565b60006020601f8301049050919050565b600082821b905092915050565b6000600883026140457fffffffffffffffffffffffffffffffffffffffffffffffffffffffffffffffff82614008565b61404f8683614008565b95508019841693508086168417925050509392505050565b6000819050919050565b600061408c61408761408284613148565b614067565b613148565b9050919050565b6000819050919050565b6140a683614071565b6140ba6140b282614093565b848454614015565b825550505050565b600090565b6140cf6140c2565b6140da81848461409d565b505050565b5b818110156140fe576140f36000826140c7565b6001810190506140e0565b5050565b601f8211156141435761411481613fe3565b61411d84613ff8565b8101602085101561412c578190505b61414061413885613ff8565b8301826140df565b50505b505050565b600082821c905092915050565b600061416660001984600802614148565b1980831691505092915050565b600061417f8383614155565b9150826002028217905092915050565b6141988261327f565b67ffffffffffffffff8111156141b1576141b061333b565b5b6141bb8254613ddc565b6141c6828285614102565b600060209050601f8311600181146141f957600084156141e7578287015190505b6141f18582614173565b865550614259565b601f19841661420786613fe3565b60005b8281101561422f5784890151825560018201915060208501945060208101905061420a565b8683101561424c5784890151614248601f891682614155565b8355505b6001600288020188555050505b505050505050565b600060608201905061427660008301866138e6565b818103602083015261428881856132d6565b9050818103604083015261429c81846132d6565b9050949350505050565b7f4e6f742061207265676973746572656420766f74657200000000000000000000600082015250565b60006142dc60168361328a565b91506142e7826142a6565b602082019050919050565b6000602082019050818103600083015261430b816142cf565b9050919050565b7f456c656374696f6e206973206e6f742061637469766500000000000000000000600082015250565b600061434860168361328a565b915061435382614312565b602082019050919050565b600060208201905081810360008301526143778161433b565b9050919050565b7f456c656374696f6e2068617320656e6465640000000000000000000000000000600082015250565b60006143b460128361328a565b91506143bf8261437e565b602082019050919050565b600060208201905081810360008301526143e3816143a7565b9050919050565b7f416c726561647920766f74656400000000000000000000000000000000000000600082015250565b6000614420600d8361328a565b915061442b826143ea565b602082019050919050565b6000602082019050818103600083015261444f81614413565b9050919050565b7f496e76616c69642063616e646964617465204944000000000000000000000000600082015250565b600061448c60148361328a565b915061449782614456565b602082019050919050565b600060208201905081810360008301526144bb8161447f565b9050919050565b7f4e487b7100000000000000000000000000000000000000000000000000000000600052603260045260246000fd5b7f4e487b7100000000000000000000000000000000000000000000000000000000600052601160045260246000fd5b600061452b82613148565b91507fffffffffffffffffffffffffffffffffffffffffffffffffffffffffffffffff820361455d5761455c6144f1565b5b600182019050919050565b7f4d6178206475726174696f6e206d75737420626520677265617465722074686160008201527f6e20300000000000000000000000000000000000000000000000000000000000602082015250565b60006145c460238361328a565b91506145cf82614568565b604082019050919050565b600060208201905081810360008301526145f3816145b7565b9050919050565b7f566f74657220616c726561647920726567697374657265640000000000000000600082015250565b600061463060188361328a565b915061463b826145fa565b602082019050919050565b6000602082019050818103600083015261465f81614623565b9050919050565b600061467182613148565b915061467c83613148565b9250828201905080821115614694576146936144f1565b5b92915050565b7f4164647265737320697320616c726561647920616e2061646d696e0000000000600082015250565b60006146d0601b8361328a565b91506146db8261469a565b602082019050919050565b600060208201905081810360008301526146ff816146c3565b9050919050565b7f456e642074696d65206d75737420626520696e20746865206675747572650000600082015250565b600061473c601e8361328a565b915061474782614706565b602082019050919050565b6000602082019050818103600083015261476b8161472f565b9050919050565b600061477d82613148565b915061478883613148565b92508282039050818111156147a05761479f6144f1565b5b92915050565b7f566f74696e67206475726174696f6e2065786365656473206d6178696d756d2060008201527f616c6c6f77656400000000000000000000000000000000000000000000000000602082015250565b600061480260278361328a565b915061480d826147a6565b604082019050919050565b60006020820190508181036000830152614831816147f5565b9050919050565b6000604082019050818103600083015261485281856132d6565b905061486160208301846138e6565b9392505050565b600060408201905061487d60008301856138e6565b61488a60208301846138e6565b9392505050565b7f416c7265616479207265676973746572656420617320766f7465720000000000600082015250565b60006148c7601b8361328a565b91506148d282614891565b602082019050919050565b600060208201905081810360008301526148f6816148ba565b9050919050565b7f4d757374206265206174206c65617374203138207965617273206f6c64000000600082015250565b6000614933601d8361328a565b915061493e826148fd565b602082019050919050565b6000602082019050818103600083015261496281614926565b9050919050565b7f456c656374696f6e20616c726561647920656e64656400000000000000000000600082015250565b600061499f60168361328a565b91506149aa82614969565b602082019050919050565b600060208201905081810360008301526149ce81614992565b9050919050565b7f4d61782063616e64696461746573206d7573742062652067726561746572207460008201527f68616e2030000000000000000000000000000000000000000000000000000000602082015250565b6000614a3160258361328a565b9150614a3c826149d5565b604082019050919050565b60006020820190508181036000830152614a6081614a24565b9050919050565b6000614a73838561328a565b9350614a808385846133e7565b614a89836132c5565b840190509392505050565b6000606082019050614aa9600083018761398d565b8181036020830152614abc818587614a67565b9050614acb60408301846138e6565b9594505050505056fea2646970667358221220d1d065c10a70ecd03a564641776201ed25e3623ddadedc8b283f0b25d5430b2264736f6c63430008130033",
  "linkReferences": {},
  "deployedLinkReferences": {}
}