{
  "_format": "hh-sol-artifact-1",
  "contractName": "Vote",
  "sourceName": "contracts/Vote.sol",
  "abi": [
    {
      "inputs": [],
      "stateMutability": "nonpayable",
      "type": "constructor"
    },
    {
      "anonymous": false,
      "inputs": [
        {
          "components": [
            {
              "internalType": "uint256",
              "name": "pollId",
              "type": "uint256"
            },
            {
              "internalType": "string",
              "name": "winnerName",
              "type": "string"
            },
            {
              "internalType": "string",
              "name": "partyName",
              "type": "string"
            },
            {
              "internalType": "address",
              "name": "winnerAdd",
              "type": "address"
            }
          ],
          "indexed": false,
          "internalType": "struct Vote.PollInfo",
          "name": "_info",
          "type": "tuple"
        },
        {
          "indexed": false,
          "internalType": "address",
          "name": "_electionCommission",
          "type": "address"
        }
      ],
      "name": "EcWinner",
      "type": "event"
    },
    {
      "anonymous": false,
      "inputs": [
        {
          "indexed": false,
          "internalType": "address",
          "name": "voter",
          "type": "address"
        },
        {
          "indexed": false,
          "internalType": "string",
          "name": "feedback",
          "type": "string"
        },
        {
          "indexed": false,
          "internalType": "uint256",
          "name": "pollId",
          "type": "uint256"
        }
      ],
      "name": "FeedbackSubmitted",
      "type": "event"
    },
    {
      "anonymous": false,
      "inputs": [
        {
          "indexed": false,
          "internalType": "address",
          "name": "voter",
          "type": "address"
        },
        {
          "indexed": false,
          "internalType": "uint256",
          "name": "pollId",
          "type": "uint256"
        }
      ],
      "name": "VoterRegistered",
      "type": "event"
    },
    {
      "anonymous": false,
      "inputs": [
        {
          "indexed": false,
          "internalType": "uint256",
          "name": "pollId",
          "type": "uint256"
        }
      ],
      "name": "VotingEnded",
      "type": "event"
    },
    {
      "anonymous": false,
      "inputs": [
        {
          "indexed": false,
          "internalType": "uint256",
          "name": "startTime",
          "type": "uint256"
        },
        {
          "indexed": false,
          "internalType": "uint256",
          "name": "endTime",
          "type": "uint256"
        }
      ],
      "name": "VotingStarted",
      "type": "event"
    },
    {
      "anonymous": false,
      "inputs": [
        {
          "indexed": false,
          "internalType": "string",
          "name": "_name",
          "type": "string"
        },
        {
          "indexed": false,
          "internalType": "string",
          "name": "_party",
          "type": "string"
        },
        {
          "indexed": false,
          "internalType": "uint256",
          "name": "_candidateId",
          "type": "uint256"
        },
        {
          "indexed": false,
          "internalType": "address",
          "name": "_electionCommission",
          "type": "address"
        },
        {
          "indexed": false,
          "internalType": "uint256",
          "name": "_pollId",
          "type": "uint256"
        }
      ],
      "name": "candidate",
      "type": "event"
    },
    {
      "anonymous": false,
      "inputs": [
        {
          "indexed": false,
          "internalType": "string",
          "name": "_name",
          "type": "string"
        },
        {
          "indexed": false,
          "internalType": "uint256",
          "name": "_votedTo",
          "type": "uint256"
        },
        {
          "indexed": false,
          "internalType": "address",
          "name": "_voterAdd",
          "type": "address"
        },
        {
          "indexed": false,
          "internalType": "address",
          "name": "_electionCommission",
          "type": "address"
        },
        {
          "indexed": false,
          "internalType": "uint256",
          "name": "_pollId",
          "type": "uint256"
        }
      ],
      "name": "voter",
      "type": "event"
    },
    {
      "inputs": [],
      "name": "EcPollInfo",
      "outputs": [
        {
          "internalType": "uint256",
          "name": "",
          "type": "uint256"
        },
        {
          "internalType": "string",
          "name": "",
          "type": "string"
        },
        {
          "internalType": "string",
          "name": "",
          "type": "string"
        },
        {
          "internalType": "address",
          "name": "",
          "type": "address"
        }
      ],
      "stateMutability": "view",
      "type": "function"
    },
    {
      "inputs": [],
      "name": "candidateList",
      "outputs": [
        {
          "components": [
            {
              "internalType": "string",
              "name": "name",
              "type": "string"
            },
            {
              "internalType": "string",
              "name": "party",
              "type": "string"
            },
            {
              "internalType": "uint256",
              "name": "age",
              "type": "uint256"
            },
            {
              "internalType": "string",
              "name": "gender",
              "type": "string"
            },
            {
              "internalType": "uint256",
              "name": "candidateId",
              "type": "uint256"
            },
            {
              "internalType": "address",
              "name": "candidateAddress",
              "type": "address"
            },
            {
              "internalType": "uint256",
              "name": "votes",
              "type": "uint256"
            },
            {
              "internalType": "uint256",
              "name": "pollID",
              "type": "uint256"
            }
          ],
          "internalType": "struct Vote.Candidate[]",
          "name": "",
          "type": "tuple[]"
        }
      ],
      "stateMutability": "view",
      "type": "function"
    },
    {
      "inputs": [
        {
          "internalType": "string",
          "name": "_name",
          "type": "string"
        },
        {
          "internalType": "string",
          "name": "_party",
          "type": "string"
        },
        {
          "internalType": "uint256",
          "name": "_age",
          "type": "uint256"
        },
        {
          "internalType": "string",
          "name": "_gender",
          "type": "string"
        }
      ],
      "name": "candidateRegister",
      "outputs": [],
      "stateMutability": "nonpayable",
      "type": "function"
    },
    {
      "inputs": [],
      "name": "checkVotedOrNot",
      "outputs": [
        {
          "internalType": "bool",
          "name": "",
          "type": "bool"
        }
      ],
      "stateMutability": "view",
      "type": "function"
    },
    {
      "inputs": [],
      "name": "checkVoterID",
      "outputs": [
        {
          "internalType": "uint256",
          "name": "",
          "type": "uint256"
        }
      ],
      "stateMutability": "view",
      "type": "function"
    },
    {
      "inputs": [],
      "name": "checkVoterRegistered",
      "outputs": [
        {
          "internalType": "bool",
          "name": "",
          "type": "bool"
        }
      ],
      "stateMutability": "view",
      "type": "function"
    },
    {
      "inputs": [],
      "name": "electionCommission",
      "outputs": [
        {
          "internalType": "address",
          "name": "",
          "type": "address"
        }
      ],
      "stateMutability": "view",
      "type": "function"
    },
    {
      "inputs": [],
      "name": "emergency",
      "outputs": [],
      "stateMutability": "nonpayable",
      "type": "function"
    },
    {
      "inputs": [],
      "name": "endTime",
      "outputs": [
        {
          "internalType": "uint256",
          "name": "",
          "type": "uint256"
        }
      ],
      "stateMutability": "view",
      "type": "function"
    },
    {
      "inputs": [
        {
          "internalType": "uint256",
          "name": "",
          "type": "uint256"
        },
        {
          "internalType": "address",
          "name": "",
          "type": "address"
        }
      ],
      "name": "isCandidateRegistered",
      "outputs": [
        {
          "internalType": "bool",
          "name": "",
          "type": "bool"
        }
      ],
      "stateMutability": "view",
      "type": "function"
    },
    {
      "inputs": [
        {
          "internalType": "uint256",
          "name": "",
          "type": "uint256"
        },
        {
          "internalType": "address",
          "name": "",
          "type": "address"
        }
      ],
      "name": "isVoterRegistered",
      "outputs": [
        {
          "internalType": "bool",
          "name": "",
          "type": "bool"
        }
      ],
      "stateMutability": "view",
      "type": "function"
    },
    {
      "inputs": [],
      "name": "maxCandidates",
      "outputs": [
        {
          "internalType": "uint256",
          "name": "",
          "type": "uint256"
        }
      ],
      "stateMutability": "view",
      "type": "function"
    },
    {
      "inputs": [],
      "name": "maxVotingDuration",
      "outputs": [
        {
          "internalType": "uint256",
          "name": "",
          "type": "uint256"
        }
      ],
      "stateMutability": "view",
      "type": "function"
    },
    {
      "inputs": [],
      "name": "nextPollId",
      "outputs": [
        {
          "internalType": "uint256",
          "name": "",
          "type": "uint256"
        }
      ],
      "stateMutability": "view",
      "type": "function"
    },
    {
      "inputs": [],
      "name": "resetElectionCommission",
      "outputs": [
        {
          "internalType": "bool",
          "name": "",
          "type": "bool"
        }
      ],
      "stateMutability": "nonpayable",
      "type": "function"
    },
    {
      "inputs": [],
      "name": "result",
      "outputs": [],
      "stateMutability": "nonpayable",
      "type": "function"
    },
    {
      "inputs": [],
      "name": "startTime",
      "outputs": [
        {
          "internalType": "uint256",
          "name": "",
          "type": "uint256"
        }
      ],
      "stateMutability": "view",
      "type": "function"
    },
    {
      "inputs": [
        {
          "internalType": "string",
          "name": "_feedback",
          "type": "string"
        }
      ],
      "name": "submitFeedback",
      "outputs": [],
      "stateMutability": "nonpayable",
      "type": "function"
    },
    {
      "inputs": [
        {
          "internalType": "uint256",
          "name": "_voterId",
          "type": "uint256"
        },
        {
          "internalType": "uint256",
          "name": "_id",
          "type": "uint256"
        }
      ],
      "name": "vote",
      "outputs": [],
      "stateMutability": "nonpayable",
      "type": "function"
    },
    {
      "inputs": [
        {
          "internalType": "uint256",
          "name": "_startTime",
          "type": "uint256"
        },
        {
          "internalType": "uint256",
          "name": "_endTime",
          "type": "uint256"
        }
      ],
      "name": "voteTime",
      "outputs": [],
      "stateMutability": "nonpayable",
      "type": "function"
    },
    {
      "inputs": [
        {
          "internalType": "string",
          "name": "_name",
          "type": "string"
        },
        {
          "internalType": "uint256",
          "name": "_age",
          "type": "uint256"
        },
        {
          "internalType": "string",
          "name": "_gender",
          "type": "string"
        }
      ],
      "name": "voterRegister",
      "outputs": [
        {
          "internalType": "bool",
          "name": "",
          "type": "bool"
        }
      ],
      "stateMutability": "nonpayable",
      "type": "function"
    },
    {
      "inputs": [],
      "name": "votingStatus",
      "outputs": [
        {
          "internalType": "string",
          "name": "",
          "type": "string"
        }
      ],
      "stateMutability": "view",
      "type": "function"
    },
    {
      "inputs": [],
      "name": "winner",
      "outputs": [
        {
          "internalType": "address",
          "name": "",
          "type": "address"
        }
      ],
      "stateMutability": "view",
      "type": "function"
    }
  ],
  "bytecode": "0x60806040526040518060400160405280601681526020017f566f74696e6720686173206e6f742073746172746564000000000000000000008152506003908051906020019062000051929190620000bc565b50600a60045562093a80600555600160075560016008553480156200007557600080fd5b50336000806101000a81548173ffffffffffffffffffffffffffffffffffffffff021916908373ffffffffffffffffffffffffffffffffffffffff160217905550620001d1565b828054620000ca906200016c565b90600052602060002090601f016020900481019282620000ee57600085556200013a565b82601f106200010957805160ff19168380011785556200013a565b828001600101855582156200013a579182015b82811115620001395782518255916020019190600101906200011c565b5b5090506200014991906200014d565b5090565b5b80821115620001685760008160009055506001016200014e565b5090565b600060028204905060018216806200018557607f821691505b602082108114156200019c576200019b620001a2565b5b50919050565b7f4e487b7100000000000000000000000000000000000000000000000000000000600052602260045260246000fd5b613f6380620001e16000396000f3fe608060405234801561001057600080fd5b506004361061014d5760003560e01c806366143dee116100c3578063b384abef1161007c578063b384abef14610361578063caa6fea41461037d578063cf5ce2e714610387578063dfbf53ae146103a3578063e1fc52af146103c1578063e341a623146103f15761014d565b806366143dee1461029b5780637514ecfa146102b957806378e97925146102d757806393e5fed2146102f55780639d49257c14610325578063aab46b7f146103435761014d565b8063394eaa8f11610115578063394eaa8f146101eb578063498ea4411461021b578063653721471461023957806365af2ac81461024357806365ca2be31461026157806365d127011461027d5761014d565b806305e518c9146101525780630f7743931461017057806319f41a40146101915780632b786571146101af5780633197cbb6146101cd575b600080fd5b61015a61040d565b6040516101679190613bef565b60405180910390f35b610178610485565b6040516101889493929190613c0a565b60405180910390f35b610199610644565b6040516101a691906138c3565b60405180910390f35b6101b76106d2565b6040516101c49190613bef565b60405180910390f35b6101d56106d8565b6040516101e29190613bef565b60405180910390f35b61020560048036038101906102009190612e72565b6106de565b6040516102129190613843565b60405180910390f35b61022361070d565b6040516102309190613821565b60405180910390f35b610241610a7d565b005b61024b6112db565b6040516102589190613bef565b60405180910390f35b61027b60048036038101906102769190612eae565b6112e1565b005b610285611655565b6040516102929190613843565b60405180910390f35b6102a36116bc565b6040516102b09190613843565b60405180910390f35b6102c16119bf565b6040516102ce9190613843565b60405180910390f35b6102df611a74565b6040516102ec9190613bef565b60405180910390f35b61030f600480360381019061030a9190612de9565b611a7a565b60405161031c9190613843565b60405180910390f35b61032d611e19565b60405161033a9190613bef565b60405180910390f35b61034b611e1f565b604051610358919061379d565b60405180910390f35b61037b60048036038101906103769190612eae565b611e45565b005b610385612251565b005b6103a1600480360381019061039c9190612d30565b612516565b005b6103ab61298c565b6040516103b8919061379d565b60405180910390f35b6103db60048036038101906103d69190612e72565b6129b2565b6040516103e89190613843565b60405180910390f35b61040b60048036038101906104069190612ceb565b6129e1565b005b60006001151561041b6119bf565b1515141561047d57600e6000600654815260200190815260200160002060003373ffffffffffffffffffffffffffffffffffffffff1673ffffffffffffffffffffffffffffffffffffffff168152602001908152602001600020549050610482565b600090505b90565b6000606080600080600f600060065481526020019081526020016000206000815481106104db577f4e487b7100000000000000000000000000000000000000000000000000000000600052603260045260246000fd5b90600052602060002090600402019050806000015481600101826002018360030160009054906101000a900473ffffffffffffffffffffffffffffffffffffffff1682805461052990613e15565b80601f016020809104026020016040519081016040528092919081815260200182805461055590613e15565b80156105a25780601f10610577576101008083540402835291602001916105a2565b820191906000526020600020905b81548152906001019060200180831161058557829003601f168201915b505050505092508180546105b590613e15565b80601f01602080910402602001604051908101604052809291908181526020018280546105e190613e15565b801561062e5780601f106106035761010080835404028352916020019161062e565b820191906000526020600020905b81548152906001019060200180831161061157829003601f168201915b5050505050915094509450945094505090919293565b6003805461065190613e15565b80601f016020809104026020016040519081016040528092919081815260200182805461067d90613e15565b80156106ca5780601f1061069f576101008083540402835291602001916106ca565b820191906000526020600020905b8154815290600101906020018083116106ad57829003601f168201915b505050505081565b60065481565b600a5481565b60116020528160005260406000206020528060005260406000206000915091509054906101000a900460ff1681565b6060600060016008546107209190613d57565b67ffffffffffffffff81111561075f577f4e487b7100000000000000000000000000000000000000000000000000000000600052604160045260246000fd5b60405190808252806020026020018201604052801561079857816020015b610785612aaf565b81526020019060019003908161077d5790505b5090506000600190505b600854811015610a7557600c600060065481526020019081526020016000206000828152602001908152602001600020604051806101000160405290816000820180546107ee90613e15565b80601f016020809104026020016040519081016040528092919081815260200182805461081a90613e15565b80156108675780601f1061083c57610100808354040283529160200191610867565b820191906000526020600020905b81548152906001019060200180831161084a57829003601f168201915b5050505050815260200160018201805461088090613e15565b80601f01602080910402602001604051908101604052809291908181526020018280546108ac90613e15565b80156108f95780601f106108ce576101008083540402835291602001916108f9565b820191906000526020600020905b8154815290600101906020018083116108dc57829003601f168201915b505050505081526020016002820154815260200160038201805461091c90613e15565b80601f016020809104026020016040519081016040528092919081815260200182805461094890613e15565b80156109955780601f1061096a57610100808354040283529160200191610995565b820191906000526020600020905b81548152906001019060200180831161097857829003601f168201915b50505050508152602001600482015481526020016005820160009054906101000a900473ffffffffffffffffffffffffffffffffffffffff1673ffffffffffffffffffffffffffffffffffffffff1673ffffffffffffffffffffffffffffffffffffffff1681526020016006820154815260200160078201548152505082600183610a209190613d57565b81518110610a57577f4e487b7100000000000000000000000000000000000000000000000000000000600052603260045260246000fd5b60200260200101819052508080610a6d90613e47565b9150506107a2565b508091505090565b600160009054906101000a900473ffffffffffffffffffffffffffffffffffffffff1673ffffffffffffffffffffffffffffffffffffffff163373ffffffffffffffffffffffffffffffffffffffff1614610b0d576040517f08c379a0000000000000000000000000000000000000000000000000000000008152600401610b0490613aff565b60405180910390fd5b600a54421180610b2a5750601260009054906101000a900460ff16155b610b69576040517f08c379a0000000000000000000000000000000000000000000000000000000008152600401610b6090613a7f565b60405180910390fd5b6000610b7361070d565b90506000815111610bb9576040517f08c379a0000000000000000000000000000000000000000000000000000000008152600401610bb090613b3f565b60405180910390fd5b60008060005b8351811015610c725782848281518110610c02577f4e487b7100000000000000000000000000000000000000000000000000000000600052603260045260246000fd5b602002602001015160c001511115610c5f57838181518110610c4d577f4e487b7100000000000000000000000000000000000000000000000000000000600052603260045260246000fd5b602002602001015160c0015192508091505b8080610c6a90613e47565b915050610bbf565b5060008211610cb6576040517f08c379a0000000000000000000000000000000000000000000000000000000008152600401610cad906139df565b60405180910390fd5b828181518110610cef577f4e487b7100000000000000000000000000000000000000000000000000000000600052603260045260246000fd5b602002602001015160a00151600260006101000a81548173ffffffffffffffffffffffffffffffffffffffff021916908373ffffffffffffffffffffffffffffffffffffffff160217905550600f6000600654815260200190815260200160002060405180608001604052806006548152602001858481518110610d9c577f4e487b7100000000000000000000000000000000000000000000000000000000600052603260045260246000fd5b6020026020010151600001518152602001858481518110610de6577f4e487b7100000000000000000000000000000000000000000000000000000000600052603260045260246000fd5b6020026020010151602001518152602001858481518110610e30577f4e487b7100000000000000000000000000000000000000000000000000000000600052603260045260246000fd5b602002602001015160a0015173ffffffffffffffffffffffffffffffffffffffff168152509080600181540180825580915050600190039060005260206000209060040201600090919091909150600082015181600001556020820151816001019080519060200190610ea4929190612b0a565b506040820151816002019080519060200190610ec1929190612b0a565b5060608201518160030160006101000a81548173ffffffffffffffffffffffffffffffffffffffff021916908373ffffffffffffffffffffffffffffffffffffffff16021790555050507f82105a8392865f17a2b2925dbf33bea1ae1f6098b4516d2bc3f54fb78a117ed360405180608001604052806006548152602001858481518110610f78577f4e487b7100000000000000000000000000000000000000000000000000000000600052603260045260246000fd5b6020026020010151600001518152602001858481518110610fc2577f4e487b7100000000000000000000000000000000000000000000000000000000600052603260045260246000fd5b602002602001015160200151815260200185848151811061100c577f4e487b7100000000000000000000000000000000000000000000000000000000600052603260045260246000fd5b602002602001015160a0015173ffffffffffffffffffffffffffffffffffffffff16815250600160009054906101000a900473ffffffffffffffffffffffffffffffffffffffff16604051611062929190613bbf565b60405180910390a16000600160006101000a81548173ffffffffffffffffffffffffffffffffffffffff021916908373ffffffffffffffffffffffffffffffffffffffff160217905550600160078190555060016008819055506000600190505b60085481101561118057600c600060065481526020019081526020016000206000828152602001908152602001600020600080820160006111049190612b90565b6001820160006111149190612b90565b600282016000905560038201600061112c9190612b90565b60048201600090556005820160006101000a81549073ffffffffffffffffffffffffffffffffffffffff0219169055600682016000905560078201600090555050808061117890613e47565b9150506110c3565b506000600190505b60075481101561123557600b600060065481526020019081526020016000206000828152602001908152602001600020600080820160006111c99190612b90565b600182016000905560028201600090556003820160006111e99190612b90565b60048201600090556005820160006101000a81549073ffffffffffffffffffffffffffffffffffffffff021916905560068201600090555050808061122d90613e47565b915050611188565b506000601260006101000a81548160ff0219169083151502179055506040518060400160405280601081526020017f566f74696e672068617320656e646564000000000000000000000000000000008152506003908051906020019061129c929190612b0a565b507f81eb7415440ff8e6c8e92606fd3b0e5e6a5c99ea90cdb63b41aec54e897312b36006546040516112ce9190613bef565b60405180910390a1505050565b60045481565b600115156112ed6116bc565b1515146112f957600080fd5b6000819050600554811115611343576040517f08c379a000000000000000000000000000000000000000000000000000000000815260040161133a9061397f565b60405180910390fd5b6000831180156113535750600082115b611392576040517f08c379a00000000000000000000000000000000000000000000000000000000081526004016113899061393f565b60405180910390fd5b33600160006101000a81548173ffffffffffffffffffffffffffffffffffffffff021916908373ffffffffffffffffffffffffffffffffffffffff1602179055506000600190505b60085481101561149757600c6000600654815260200190815260200160002060008281526020019081526020016000206000808201600061141b9190612b90565b60018201600061142b9190612b90565b60028201600090556003820160006114439190612b90565b60048201600090556005820160006101000a81549073ffffffffffffffffffffffffffffffffffffffff0219169055600682016000905560078201600090555050808061148f90613e47565b9150506113da565b506000600190505b60075481101561154c57600b600060065481526020019081526020016000206000828152602001908152602001600020600080820160006114e09190612b90565b600182016000905560028201600090556003820160006115009190612b90565b60048201600090556005820160006101000a81549073ffffffffffffffffffffffffffffffffffffffff021916905560068201600090555050808061154490613e47565b91505061149f565b50600f60006006548152602001908152602001600020600061156e9190612bd0565b6001601260006101000a81548160ff02191690831515021790555082426115959190613d01565b600981905550816009546115a99190613d01565b600a819055506040518060400160405280601281526020017f566f74696e6720696e2070726f67726573730000000000000000000000000000815250600390805190602001906115fa929190612b0a565b506006600081548092919061160e90613e47565b91905055507ff8c022056754dbacca05aff710dc315a2fa7699ae9309fda403cd1e55c11d40f600954600a54604051611648929190613c5d565b60405180910390a1505050565b6000600d6000600654815260200190815260200160002060003373ffffffffffffffffffffffffffffffffffffffff1673ffffffffffffffffffffffffffffffffffffffff16815260200190815260200160002060009054906101000a900460ff16905090565b6000801515601260009054906101000a900460ff16151514806116e05750600a5442115b80611736575060008054906101000a900473ffffffffffffffffffffffffffffffffffffffff1673ffffffffffffffffffffffffffffffffffffffff163373ffffffffffffffffffffffffffffffffffffffff16145b611775576040517f08c379a000000000000000000000000000000000000000000000000000000000815260040161176c90613b1f565b60405180910390fd5b6000600160006101000a81548173ffffffffffffffffffffffffffffffffffffffff021916908373ffffffffffffffffffffffffffffffffffffffff1602179055506000601260006101000a81548160ff0219169083151502179055506040518060400160405280601081526020017f566f74696e672068617320656e646564000000000000000000000000000000008152506003908051906020019061181d929190612b0a565b5060006009819055506000600a81905550600160078190555060016008819055506000600190505b60085481101561190257600c600060065481526020019081526020016000206000828152602001908152602001600020600080820160006118869190612b90565b6001820160006118969190612b90565b60028201600090556003820160006118ae9190612b90565b60048201600090556005820160006101000a81549073ffffffffffffffffffffffffffffffffffffffff021916905560068201600090556007820160009055505080806118fa90613e47565b915050611845565b506000600190505b6007548110156119b757600b6000600654815260200190815260200160002060008281526020019081526020016000206000808201600061194b9190612b90565b6001820160009055600282016000905560038201600061196b9190612b90565b60048201600090556005820160006101000a81549073ffffffffffffffffffffffffffffffffffffffff02191690556006820160009055505080806119af90613e47565b91505061190a565b506001905090565b600080600190505b600754811015611a6b57600b60006006548152602001908152602001600020600082815260200190815260200160002060050160009054906101000a900473ffffffffffffffffffffffffffffffffffffffff1673ffffffffffffffffffffffffffffffffffffffff163373ffffffffffffffffffffffffffffffffffffffff161415611a58576001915050611a71565b8080611a6390613e47565b9150506119c7565b50600090505b90565b60095481565b600042600a5411611ac0576040517f08c379a0000000000000000000000000000000000000000000000000000000008152600401611ab790613b9f565b60405180910390fd5b60116000600654815260200190815260200160002060003373ffffffffffffffffffffffffffffffffffffffff1673ffffffffffffffffffffffffffffffffffffffff16815260200190815260200160002060009054906101000a900460ff1615611b60576040517f08c379a0000000000000000000000000000000000000000000000000000000008152600401611b579061399f565b60405180910390fd5b6012841015611ba4576040517f08c379a0000000000000000000000000000000000000000000000000000000008152600401611b9b90613a1f565b60405180910390fd5b6040518060e0016040528087878080601f016020809104026020016040519081016040528093929190818152602001838380828437600081840152601f19601f820116905080830192505050505050508152602001858152602001600754815260200184848080601f016020809104026020016040519081016040528093929190818152602001838380828437600081840152601f19601f820116905080830192505050505050508152602001600081526020013373ffffffffffffffffffffffffffffffffffffffff168152602001600654815250600b60006006548152602001908152602001600020600060075481526020019081526020016000206000820151816000019080519060200190611cbe929190612b0a565b5060208201518160010155604082015181600201556060820151816003019080519060200190611cef929190612b0a565b506080820151816004015560a08201518160050160006101000a81548173ffffffffffffffffffffffffffffffffffffffff021916908373ffffffffffffffffffffffffffffffffffffffff16021790555060c08201518160060155905050600160116000600654815260200190815260200160002060003373ffffffffffffffffffffffffffffffffffffffff1673ffffffffffffffffffffffffffffffffffffffff16815260200190815260200160002060006101000a81548160ff0219169083151502179055507ff16ce2c2236e2c6e3df646f80d657bceef4cd7f3a240c47e82adfa17a5f4724133600654604051611dec9291906137f8565b60405180910390a160076000815480929190611e0790613e47565b91905055506001905095945050505050565b60055481565b600160009054906101000a900473ffffffffffffffffffffffffffffffffffffffff1681565b42600a5411611e89576040517f08c379a0000000000000000000000000000000000000000000000000000000008152600401611e8090613b9f565b60405180910390fd5b42600a541180611eac575060011515601260009054906101000a900460ff161515145b611eeb576040517f08c379a0000000000000000000000000000000000000000000000000000000008152600401611ee290613a3f565b60405180910390fd5b6009544210158015611eff5750600a544211155b611f3e576040517f08c379a0000000000000000000000000000000000000000000000000000000008152600401611f35906139ff565b60405180910390fd5b6000600b6000600654815260200190815260200160002060008481526020019081526020016000206004015414611faa576040517f08c379a0000000000000000000000000000000000000000000000000000000008152600401611fa190613b7f565b60405180910390fd5b3373ffffffffffffffffffffffffffffffffffffffff16600b60006006548152602001908152602001600020600084815260200190815260200160002060050160009054906101000a900473ffffffffffffffffffffffffffffffffffffffff1673ffffffffffffffffffffffffffffffffffffffff1614612061576040517f08c379a00000000000000000000000000000000000000000000000000000000081526004016120589061395f565b60405180910390fd5b6002600854116120a6576040517f08c379a000000000000000000000000000000000000000000000000000000000815260040161209d906139bf565b60405180910390fd5b60085481106120ea576040517f08c379a00000000000000000000000000000000000000000000000000000000081526004016120e190613abf565b60405180910390fd5b80600b600060065481526020019081526020016000206000848152602001908152602001600020600401819055506001600d6000600654815260200190815260200160002060003373ffffffffffffffffffffffffffffffffffffffff1673ffffffffffffffffffffffffffffffffffffffff16815260200190815260200160002060006101000a81548160ff0219169083151502179055507f72d2a5cc14f63a6f55b143540846592d98ef84b60569c948ba754e22f9a963e2600b6000600654815260200190815260200160002060008481526020019081526020016000206000018233600160009054906101000a900473ffffffffffffffffffffffffffffffffffffffff166006546040516122069594939291906138e5565b60405180910390a1600c600060065481526020019081526020016000206000828152602001908152602001600020600601600081548092919061224890613e47565b91905055505050565b600160009054906101000a900473ffffffffffffffffffffffffffffffffffffffff1673ffffffffffffffffffffffffffffffffffffffff163373ffffffffffffffffffffffffffffffffffffffff16146122e1576040517f08c379a00000000000000000000000000000000000000000000000000000000081526004016122d890613a9f565b60405180910390fd5b6040518060400160405280600f81526020017f566f74696e6720697320656e64656400000000000000000000000000000000008152506003908051906020019061232c929190612b0a565b506000601260006101000a81548160ff0219169083151502179055506000600160006101000a81548173ffffffffffffffffffffffffffffffffffffffff021916908373ffffffffffffffffffffffffffffffffffffffff160217905550600160078190555060016008819055506000600190505b60085481101561245e57600c600060065481526020019081526020016000206000828152602001908152602001600020600080820160006123e29190612b90565b6001820160006123f29190612b90565b600282016000905560038201600061240a9190612b90565b60048201600090556005820160006101000a81549073ffffffffffffffffffffffffffffffffffffffff0219169055600682016000905560078201600090555050808061245690613e47565b9150506123a1565b506000600190505b60075481101561251357600b600060065481526020019081526020016000206000828152602001908152602001600020600080820160006124a79190612b90565b600182016000905560028201600090556003820160006124c79190612b90565b60048201600090556005820160006101000a81549073ffffffffffffffffffffffffffffffffffffffff021916905560068201600090555050808061250b90613e47565b915050612466565b50565b42600a541161255a576040517f08c379a000000000000000000000000000000000000000000000000000000000815260040161255190613b9f565b60405180910390fd5b60106000600654815260200190815260200160002060003373ffffffffffffffffffffffffffffffffffffffff1673ffffffffffffffffffffffffffffffffffffffff16815260200190815260200160002060009054906101000a900460ff16156125fa576040517f08c379a00000000000000000000000000000000000000000000000000000000081526004016125f19061399f565b60405180910390fd5b601283101561263e576040517f08c379a000000000000000000000000000000000000000000000000000000000815260040161263590613adf565b60405180910390fd5b6004546008541115612685576040517f08c379a000000000000000000000000000000000000000000000000000000000815260040161267c90613b5f565b60405180910390fd5b60405180610100016040528088888080601f016020809104026020016040519081016040528093929190818152602001838380828437600081840152601f19601f82011690508083019250505050505050815260200186868080601f016020809104026020016040519081016040528093929190818152602001838380828437600081840152601f19601f82011690508083019250505050505050815260200184815260200183838080601f016020809104026020016040519081016040528093929190818152602001838380828437600081840152601f19601f82011690508083019250505050505050815260200160085481526020013373ffffffffffffffffffffffffffffffffffffffff16815260200160008152602001600654815250600c600060065481526020019081526020016000206000600854815260200190815260200160002060008201518160000190805190602001906127ea929190612b0a565b506020820151816001019080519060200190612807929190612b0a565b5060408201518160020155606082015181600301908051906020019061282e929190612b0a565b506080820151816004015560a08201518160050160006101000a81548173ffffffffffffffffffffffffffffffffffffffff021916908373ffffffffffffffffffffffffffffffffffffffff16021790555060c0820151816006015560e08201518160070155905050600160106000600654815260200190815260200160002060003373ffffffffffffffffffffffffffffffffffffffff1673ffffffffffffffffffffffffffffffffffffffff16815260200190815260200160002060006101000a81548160ff0219169083151502179055507f87a249fdf210f5fed9ed0c146f8321194c7733a1f9d0ea1b052b9e63060b92c887878787600854600160009054906101000a900473ffffffffffffffffffffffffffffffffffffffff16600654604051612963979695949392919061385e565b60405180910390a16008600081548092919061297e90613e47565b919050555050505050505050565b600260009054906101000a900473ffffffffffffffffffffffffffffffffffffffff1681565b60106020528160005260406000206020528060005260406000206000915091509054906101000a900460ff1681565b42600a5411612a25576040517f08c379a0000000000000000000000000000000000000000000000000000000008152600401612a1c90613b9f565b60405180910390fd5b612a2d6119bf565b612a6c576040517f08c379a0000000000000000000000000000000000000000000000000000000008152600401612a6390613a5f565b60405180910390fd5b7fa44edc2c3122d75f6eca14609b38b1f9e84dea9f4bc89419f056771b59c5014c338383600654604051612aa394939291906137b8565b60405180910390a15050565b6040518061010001604052806060815260200160608152602001600081526020016060815260200160008152602001600073ffffffffffffffffffffffffffffffffffffffff16815260200160008152602001600081525090565b828054612b1690613e15565b90600052602060002090601f016020900481019282612b385760008555612b7f565b82601f10612b5157805160ff1916838001178555612b7f565b82800160010185558215612b7f579182015b82811115612b7e578251825591602001919060010190612b63565b5b509050612b8c9190612bf4565b5090565b508054612b9c90613e15565b6000825580601f10612bae5750612bcd565b601f016020900490600052602060002090810190612bcc9190612bf4565b5b50565b5080546000825560040290600052602060002090810190612bf19190612c11565b50565b5b80821115612c0d576000816000905550600101612bf5565b5090565b5b80821115612c7357600080820160009055600182016000612c339190612b90565b600282016000612c439190612b90565b6003820160006101000a81549073ffffffffffffffffffffffffffffffffffffffff021916905550600401612c12565b5090565b600081359050612c8681613eff565b92915050565b60008083601f840112612c9e57600080fd5b8235905067ffffffffffffffff811115612cb757600080fd5b602083019150836001820283011115612ccf57600080fd5b9250929050565b600081359050612ce581613f16565b92915050565b60008060208385031215612cfe57600080fd5b600083013567ffffffffffffffff811115612d1857600080fd5b612d2485828601612c8c565b92509250509250929050565b60008060008060008060006080888a031215612d4b57600080fd5b600088013567ffffffffffffffff811115612d6557600080fd5b612d718a828b01612c8c565b9750975050602088013567ffffffffffffffff811115612d9057600080fd5b612d9c8a828b01612c8c565b95509550506040612daf8a828b01612cd6565b935050606088013567ffffffffffffffff811115612dcc57600080fd5b612dd88a828b01612c8c565b925092505092959891949750929550565b600080600080600060608688031215612e0157600080fd5b600086013567ffffffffffffffff811115612e1b57600080fd5b612e2788828901612c8c565b95509550506020612e3a88828901612cd6565b935050604086013567ffffffffffffffff811115612e5757600080fd5b612e6388828901612c8c565b92509250509295509295909350565b60008060408385031215612e8557600080fd5b6000612e9385828601612cd6565b9250506020612ea485828601612c77565b9150509250929050565b60008060408385031215612ec157600080fd5b6000612ecf85828601612cd6565b9250506020612ee085828601612cd6565b9150509250929050565b6000612ef68383613657565b905092915050565b612f0781613d8b565b82525050565b612f1681613d8b565b82525050565b6000612f2782613cab565b612f318185613cce565b935083602082028501612f4385613c86565b8060005b85811015612f7f5784840389528151612f608582612eea565b9450612f6b83613cc1565b925060208a01995050600181019050612f47565b50829750879550505050505092915050565b612f9a81613d9d565b82525050565b6000612fac8385613cf0565b9350612fb9838584613dd3565b612fc283613eee565b840190509392505050565b6000612fd882613cb6565b612fe28185613cdf565b9350612ff2818560208601613de2565b612ffb81613eee565b840191505092915050565b600061301182613cb6565b61301b8185613cf0565b935061302b818560208601613de2565b61303481613eee565b840191505092915050565b6000815461304c81613e15565b6130568186613cf0565b945060018216600081146130715760018114613083576130b6565b60ff19831686526020860193506130b6565b61308c85613c96565b60005b838110156130ae5781548189015260018201915060208101905061308f565b808801955050505b50505092915050565b60006130cc601d83613cf0565b91507f54696d652073686f756c642062652067726561746572207468616e20300000006000830152602082019050919050565b600061310c601383613cf0565b91507f596f7520617265206e6f74206120766f746572000000000000000000000000006000830152602082019050919050565b600061314c602783613cf0565b91507f566f74696e67206475726174696f6e2065786365656473206d6178696d756d2060008301527f616c6c6f776564000000000000000000000000000000000000000000000000006020830152604082019050919050565b60006131b2601b83613cf0565b91507f596f75206861766520616c7265616479207265676973746572656400000000006000830152602082019050919050565b60006131f2601f83613cf0565b91507f546865726520617265206e6f2063616e6469646174657320746f20766f7465006000830152602082019050919050565b6000613232600d83613cf0565b91507f4e6f20766f7465732063617374000000000000000000000000000000000000006000830152602082019050919050565b6000613272601183613cf0565b91507f566f74696e67206e6f74206163746976650000000000000000000000000000006000830152602082019050919050565b60006132b2601c83613cf0565b91507f596f7520617265206e6f7420656c696769626c6520746f20766f7465000000006000830152602082019050919050565b60006132f2600e83613cf0565b91507f566f74696e67206973206f7665720000000000000000000000000000000000006000830152602082019050919050565b6000613332601683613cf0565b91507f4e6f742061207265676973746572656420766f746572000000000000000000006000830152602082019050919050565b6000613372601383613cf0565b91507f566f74696e67207374696c6c20616374697665000000000000000000000000006000830152602082019050919050565b60006133b2601f83613cf0565b91507f596f7520617265206e6f7420656c656374696f6e20636f6d6d697373696f6e006000830152602082019050919050565b60006133f2601883613cf0565b91507f43616e64696461746520646f6573206e6f7420657869737400000000000000006000830152602082019050919050565b6000613432602683613cf0565b91507f596f7520617265206e6f7420656c696769626c6520746f20626520612063616e60008301527f64696461746500000000000000000000000000000000000000000000000000006020830152604082019050919050565b6000613498601783613cf0565b91507f4f6e6c7920636f6d6d697373696f6e20616c6c6f7765640000000000000000006000830152602082019050919050565b60006134d8601b83613cf0565b91507f50726576696f757320766f74696e6720696e2070726f677265737300000000006000830152602082019050919050565b6000613518601883613cf0565b91507f4e6f2063616e64696461746573207265676973746572656400000000000000006000830152602082019050919050565b6000613558602483613cf0565b91507f4d6178696d756d206e756d626572206f662063616e646964617465732072656160008301527f63686564000000000000000000000000000000000000000000000000000000006020830152604082019050919050565b60006135be601683613cf0565b91507f596f75206861766520616c726561647920766f746564000000000000000000006000830152602082019050919050565b60006135fe603083613cf0565b91507f566f74696e6720686173206e6f7420737461727465642c20737461727420612060008301527f6e657720566f74696e6720706f6c6c2e000000000000000000000000000000006020830152604082019050919050565b60006101008301600083015184820360008601526136758282612fcd565b9150506020830151848203602086015261368f8282612fcd565b91505060408301516136a4604086018261377f565b50606083015184820360608601526136bc8282612fcd565b91505060808301516136d1608086018261377f565b5060a08301516136e460a0860182612efe565b5060c08301516136f760c086018261377f565b5060e083015161370a60e086018261377f565b508091505092915050565b600060808301600083015161372d600086018261377f565b50602083015184820360208601526137458282612fcd565b9150506040830151848203604086015261375f8282612fcd565b91505060608301516137746060860182612efe565b508091505092915050565b61378881613dc9565b82525050565b61379781613dc9565b82525050565b60006020820190506137b26000830184612f0d565b92915050565b60006060820190506137cd6000830187612f0d565b81810360208301526137e0818587612fa0565b90506137ef604083018461378e565b95945050505050565b600060408201905061380d6000830185612f0d565b61381a602083018461378e565b9392505050565b6000602082019050818103600083015261383b8184612f1c565b905092915050565b60006020820190506138586000830184612f91565b92915050565b600060a082019050818103600083015261387981898b612fa0565b9050818103602083015261388e818789612fa0565b905061389d604083018661378e565b6138aa6060830185612f0d565b6138b7608083018461378e565b98975050505050505050565b600060208201905081810360008301526138dd8184613006565b905092915050565b600060a08201905081810360008301526138ff818861303f565b905061390e602083018761378e565b61391b6040830186612f0d565b6139286060830185612f0d565b613935608083018461378e565b9695505050505050565b60006020820190508181036000830152613958816130bf565b9050919050565b60006020820190508181036000830152613978816130ff565b9050919050565b600060208201905081810360008301526139988161313f565b9050919050565b600060208201905081810360008301526139b8816131a5565b9050919050565b600060208201905081810360008301526139d8816131e5565b9050919050565b600060208201905081810360008301526139f881613225565b9050919050565b60006020820190508181036000830152613a1881613265565b9050919050565b60006020820190508181036000830152613a38816132a5565b9050919050565b60006020820190508181036000830152613a58816132e5565b9050919050565b60006020820190508181036000830152613a7881613325565b9050919050565b60006020820190508181036000830152613a9881613365565b9050919050565b60006020820190508181036000830152613ab8816133a5565b9050919050565b60006020820190508181036000830152613ad8816133e5565b9050919050565b60006020820190508181036000830152613af881613425565b9050919050565b60006020820190508181036000830152613b188161348b565b9050919050565b60006020820190508181036000830152613b38816134cb565b9050919050565b60006020820190508181036000830152613b588161350b565b9050919050565b60006020820190508181036000830152613b788161354b565b9050919050565b60006020820190508181036000830152613b98816135b1565b9050919050565b60006020820190508181036000830152613bb8816135f1565b9050919050565b60006040820190508181036000830152613bd98185613715565b9050613be86020830184612f0d565b9392505050565b6000602082019050613c04600083018461378e565b92915050565b6000608082019050613c1f600083018761378e565b8181036020830152613c318186613006565b90508181036040830152613c458185613006565b9050613c546060830184612f0d565b95945050505050565b6000604082019050613c72600083018561378e565b613c7f602083018461378e565b9392505050565b6000819050602082019050919050565b60008190508160005260206000209050919050565b600081519050919050565b600081519050919050565b6000602082019050919050565b600082825260208201905092915050565b600082825260208201905092915050565b600082825260208201905092915050565b6000613d0c82613dc9565b9150613d1783613dc9565b9250827fffffffffffffffffffffffffffffffffffffffffffffffffffffffffffffffff03821115613d4c57613d4b613e90565b5b828201905092915050565b6000613d6282613dc9565b9150613d6d83613dc9565b925082821015613d8057613d7f613e90565b5b828203905092915050565b6000613d9682613da9565b9050919050565b60008115159050919050565b600073ffffffffffffffffffffffffffffffffffffffff82169050919050565b6000819050919050565b82818337600083830152505050565b60005b83811015613e00578082015181840152602081019050613de5565b83811115613e0f576000848401525b50505050565b60006002820490506001821680613e2d57607f821691505b60208210811415613e4157613e40613ebf565b5b50919050565b6000613e5282613dc9565b91507fffffffffffffffffffffffffffffffffffffffffffffffffffffffffffffffff821415613e8557613e84613e90565b5b600182019050919050565b7f4e487b7100000000000000000000000000000000000000000000000000000000600052601160045260246000fd5b7f4e487b7100000000000000000000000000000000000000000000000000000000600052602260045260246000fd5b6000601f19601f8301169050919050565b613f0881613d8b565b8114613f1357600080fd5b50565b613f1f81613dc9565b8114613f2a57600080fd5b5056fea26469706673582212205e2c83fa43b2c767cf0b7a9473f63997f89d2778efadcfc36abe2af12267057c64736f6c63430008000033",
  "linkReferences": {},
  "deployedLinkReferences": {}
}